:020000042400D6
:10000000000002206503002459030024411F01243D
:100010005903002459030024590300240000000060
:100020000000000000000000000000005903002450
:10003000590300240000000059030024C51E0124B8
:1000400059030024590300245903002459030024B0
:1000500059030024590300245903002459030024A0
:10006000590300245903002459030024AD1A012424
:10007000B91A0124A9FD0024C51A0124D11A0124AA
:10008000DDEC0124650A01245903002459030024EE
:100090005903002459030024590300245903002460
:1000A0005903002459030024590300245903002450
:1000B0006DDE012479DE012485DE0124990A012404
:1000C00059030024A50A01245903002409D7012457
:1000D00015D70124EDEA01241DEB012455EB012481
:1000E0005903002459030024000000005903002490
:1000F0005903002459030024590300245903002400
:10010000590300245903002491DE012421D701243E
:100110008DEB0124C5EB0124910001245903002437
:10012000790001248500012445D7012479D70124D1
:1001300011ED01245903002459030024590300241C
:1001400000000000000000000000000000000000AF
:10015000590300245903002459030024FDEB012412
:10016000B10A012459030024D51E0124F91E0124DB
:10017000590300241D1F012459030024590300249E
:10018000590300245903002435EC01246DEC0124AB
:100190002DD7012439D70124590300245903002401
:1001A000590300245903002459030024590300244F
:1001B000F116012459030024590300245903002493
:1001C000590300245903002459030024590300242F
:1001D000590300245903002459030024590300241F
:1001E000590300245903002459030024590300240F
:1001F00059030024590300245903002459030024FF
:1002000059030024590300245903002459030024EE
:1002100059030024590300245903002459030024DE
:10022000590300245903002459030024000000004E
:10023000590300245903002400000000590300243E
:1002400059030024590300245903002459030024AE
:10025000590300245903002459030024590300249E
:10026000590300245903002459030024590300248E
:100270005903002459030024A5EC012400000000C8
:1002800059030024590300245903002400000000EE
:080290000000000059030024E6
:1002980053B94AB9002908BF00281CBF4FF0FF31E5
:1002A8004FF0FF3000F00CB8ADF1080C6DE904CE4A
:1002B80020F09AFCDDF804E0DDE9022304B0704781
:1002C800704700BF0348044B834202D0034B03B17D
:1002D80018477047800300208003002000000000BA
:1002E8000548064B1B1AD90F01EBA301491002D090
:1002F800034B03B118477047800300208003002098
:100308000000000010B5064C237843B9FFF7DAFF68
:10031800044B13B10448AFF300800123237010BDD0
:1003280080030020000000000473032408B5054B77
:100338001BB105490548AFF30080BDE80840FFF749
:10034800CFBF00BF00000000840300200473032413
:10035800684620F007018D46FEE7000008B50B4A05
:100368000B4B0C498B4209D10B4B00210B4A934292
:1003780009D120F0F9FB00F0A9F8FEE752F8040BC8
:1003880043F8040BEEE743F8041BF0E74473032437
:10039800000000208003002080030020F09D002042
:1003A80070477047F7B52D4815460E460EF038F8D9
:1003B8002A480EF041F8002128480EF03FF8F3EEE5
:1003C800087A9FED277A0121264CE0EE077A234828
:1003D800C4ED007A0EF032F80221204884ED010ABB
:1003E8000EF02CF803211D4884ED020A0EF026F8C1
:1003F80084ED030A0024AC4201D303B0F0BD2F1BE7
:10040800194B1A4A102F1A48164928BF1027009767
:1004180000F070FA144AA3003C44A000834202F1A1
:100428000402E8D032F9047C9FED127A07EE907A44
:10043800316832F9027CF8EEE77A194467EE877A78
:10044800C1ED007A07EE907A7168F8EEE77A194400
:10045800043367EE877AC1ED007ADFE7D0660020C3
:1004680000009042044400209C030020DC4300204C
:100478002C44002000000038084B0021084A19616C
:100488001A604FF07C525961996100215A609A6054
:10049800DA60D9611A625A62704700BF04440020CA
:1004A80000004042084B00221A605A609A60DA60E5
:1004B8001A615A619A614FF07E52DA6100221A621B
:1004C80083F82420704700BFDC4300201FB516487E
:1004D8000DF0DAFC102114480DF04EFF03211248EC
:1004E8000DF074FF114A4FF4804369461048019299
:1004F80003930092029300F009FDFFF7BDFF0A483D
:100508000C49FFF7CFFF0DF033FF012106480DF02E
:100518009BFFFA2011F080FD002103480DF094FFA5
:10052800FA2011F079FDF0E7D0660020DC03002006
:100538002C440020AD03002408B5374A0023364870
:10054800114613629362C2E903334FF60B72C1E995
:100558000D33C1E90B23C1E97023C1E97623C1E951
:100568007C23C1E98123C1E97233C1E97833C1E948
:100578007E33C1E98333294A294920F0CFFA294A31
:10058800294B2A4913602A4BC2F8B030294BC2F8CC
:100598000431294BC2F83C31284BC2F8C031284BF2
:1005A800C2F87C32274BC2F8C432274BC2F8283431
:1005B800264BC2F8CC35264BC2F8E035254BC2F89D
:1005C8006036254BC2F84037244BC2F88C38244B90
:1005D800C2F8D039234BC2F8883A234BC2F8AC3B57
:1005E800224BC2F8F03C224BC2F88C3D214BC2F89A
:1005F800F03D02F58053204AA3F58050C3F8B02E91
:100608001E4AC3F8E02E1E4AC3F8F02F034ABDE87D
:10061800084020F083BA00BFD06600200000002008
:10062800A90300242C440020F0120224AB03002468
:100638001C130224EC1102240412022414100224B4
:1006480034130224C4100224A8120224D81202244B
:100658004C12022464120224C0120224341202240E
:10066800AC1002247C1202241C120224B4140224AA
:10067800641302247C130224CC140224941302244D
:100688004C130224DFED0E7A0E4A30EE270AFDEEF7
:10069800C07AB8EEE77A17EE901A30EE470ABEEE47
:1006A800CC0A10EE103A02EB8302074B03EB8103EE
:1006B80092ED000AD3ED007A20EE270A704700BFBA
:1006C80000000043F4690324F86D032490ED007AD8
:1006D800F7EE006A30EE470A27EE076A76EEC77A29
:1006E800B5EEC00A26EE066A67EEA77AF1EE10FAB2
:1006F800D4BF76EEC65ADFED110A76EEE76AD8BFA8
:10070800E5EE810ADFED0E5AE6EEA17AA0EE807AD8
:1007180067EEA17A80ED007A80ED017A9FED097A83
:10072800A6EE257A9FED086AA1EE867A67EEA11AF1
:10073800C0ED031A80ED027A704700BF9A99193FFD
:100748009A99993EA69B443B0AD7233D064A002323
:100758008260064A4360C2608361054A43614FF084
:100768007C5302610360704722BA003D0AD7233CDC
:10077800CAAA7F3FB5EEC00A70B5F1EE10FA049C24
:1007880009D5F1EE405A25461646013DB7EE000A56
:10079800B5F1FF3F35D1DFED517A059D20EE270AEF
:1007A8006D00002940F0968090ED016A07EE904AAE
:1007B800F0EE045AB0EE467AF8EE677AC0ED035AC6
:1007C80090EE207A87EE274A9FED457ADFED457A4D
:1007D80021EE077AE1EE077AB7EE007A21EE271AC2
:1007E800F0EE477A80ED021AE1EE257AE1EE017A21
:1007F80087EE275A80ED045A013C2CD280ED016A1D
:1008080070BDD6ED007A90ED007A65EEA77AF0EE2D
:10081800E76A76EEC76AF5EEC06AF1EE10FACCBF69
:100828009FED316A9FED316AA6EE867AB4EEC07A02
:1008380080ED007AF1EE10FA88BFC0EE076A9FEDEE
:100848002C7A98BFF7EE006A67EEA67A67EE877A89
:10085800E6EC017A99E7D0ED056A36EE046AF2EC27
:10086800014A25EEE67AD0ED067AA4EE867AA1EE64
:10087800667A37EE677A27EE057AE1EE076AE1EEE7
:10088800267AF0EE663AE1EE073AB0EE677AA1EE24
:10089800267AC0ED053A80ED067AB0EE677A94EED6
:1008A800867AE1EE877AFDEEE77A17EE901A013143
:1008B80001F30F0119802B449EE7F2EC017A60EEF8
:1008C800277AFDEEE77A17EE901A013101F30F014E
:1008D80019802B44013CF0D292E700BF00FEFFC60E
:1008E800D7573941DB0F4940CDCC4C3DACC5A73774
:1008F800CDCC4C3F2DE9F04F0746154690690E4682
:1009080007F500542DED088B8DB0DFEDB3AA94F8F0
:1009180004B1B7EE00AA02939FED9F8AD4E9503242
:1009280002EB8301073303F007030860591DC4F87D
:100938004031063301F0070103F0070302EB8101A0
:1009480002EB8302D1ED007A92ED007A37EE677AF6
:10095800E7EE2A7ABBF1000F40F00581F4EEC87A81
:10096800F1EE10FA0CDD012395F8242084F8043107
:100978000AB984F81C312B6884ED42AAC4F8FC300B
:1009880095F8233013B92B68C4F8FC30D4ED3F6ACE
:10099800F6EE008AD4ED3A7A94ED3B7AA6EEA77A81
:1009A800D6ED077AF7EE006AF8EEE77A77EE877AFF
:1009B80094ED3C7AB8EEC77AF4EEC77ABFEE007AC7
:1009C800F1EE10FA37FE267AD4ED396AE6EE877A28
:1009D80077EEA87AFDEEE77A17EE909AB9F1000F54
:1009E800C0F2CC80D4F8E030994501DB03F1FF393F
:1009F80004EB8903C4F8F090D3F88081D4F8F83078
:100A08004B4502D194F8F430C3B1A9F10203404632
:100A1800022B96BF614A002152F82310D8F8003003
:100A28009B689847D8F8003040465B689847002391
:100A3800C4ED528AC4F8F89084F8F430D5ED017A00
:100A480094ED40BA95F823A037EE8BBA94F80421B8
:100A5800C4ED407A2BEE28BABAF1000F00F091806D
:100A68008BF00103134043EA8203DBB2DFED4C7ADB
:100A7800F0EE009A96ED080A069320EE270AFFF793
:100A880001FEDFED487AB0EE4A5A94ED427A60EE04
:100A9800278ADFED456AA8EEE95AB1EE689A25EE95
:100AA800075A95ED077A67EE266AB0EEC77A84EDA5
:100AB800425A37EE087A86EE878AB5EEC08AF1EE9A
:100AC80010FA60D4B4EECA8AF1EE10FA3AFE088A37
:100AD80095F824309FED357A002BD6ED016A07FE94
:100AE800087A8DED0B7A95ED037A76EE876AF5EE46
:100AF800C06AF1EE10FA49D4F4EECA6AF1EE10FABF
:100B08007AFE266AB9F10F0F95F82120D6ED053A3D
:100B1800D6ED044ACDED0A6A40F06181B1EE086A6B
:100B2800B0EE697AA6EEC67AB5EEC07AF1EE10FAA2
:100B38002FD4B4EECA7AF1EE10FA3AFE077A07F526
:100B48008563BAF1000F49D095F82010DFED226ACD
:100B5800002995F8221044FEA66AC3ED676A0029A9
:100B68003ED1B1693DE09FED127AF4EEC77AF1EE1D
:100B780010FA44BF002384F8043101E74FF000095C
:100B880036E7022372E79FED148AA1E7DFED126AC8
:100B9800B8E79FED117AD2E79A99993EE83903248C
:100BA8000000C0C2CDCC4C3D6666A63FCDCC4C3FC4
:100BB800CDCCCC3D6666863F0000EEC20000F04218
:100BC800000090C20AD7A33B00004042000000C3C7
:100BD8000000FE425196963900000000C3ED67AA56
:100BE8000021F7EE006AC3F8A01196ED006A27EE1F
:100BF800057A1FED104A7BEE065A95F82030B0EEC4
:100C0800E46A36EE676AB4EEE76AF1EE10FA48BFB6
:100C1800B0EE676A26EE246A26EE046A002B00F01E
:100C2800F780D5ED024AE6EE245A1FED1D6AF4EE70
:100C3800C65AF1EE10FA07D41FED206AF4EEC65A30
:100C4800F1EE10FA36FE256A8DED076AB0EEE36A1A
:100C5800D6ED025A36EE676AB4EEE76AF1EE10FA9C
:100C680048BFB0EE676A26EE236A26EE046A002AB9
:100C780000F0DB80D5ED046AE6EE265AF5EEC05AA0
:100C8800F1EE10FA00F1DA80F4EECA5AF1EE10FA39
:100C98007AFE255ACDED085AD6ED065A95F8223037
:100CA800B0EEE56AD6ED036A36EE676AB4EEE76A37
:100CB800F1EE10FA58BFF0EE467A67EEA57A67EEC5
:100CC800847A002B00F0BD8095ED057AE7EE876AFF
:100CD800F5EEC06AF1EE10FA00F1BA80F4EECA6AD5
:100CE800F1EE10FA7AFE266A98F80C300DF1170228
:100CF80007F5075A07F5095B8DF8173006A9D8F8E4
:100D080000300AF1240A01920BF1040B1E9A4046A6
:100D1800CDED096A00925246D3F80C905B46C8475D
:100D28009DF81790B9F1000F40F0CF8095F8243066
:100D380023B995F82320002A00F0C780B2EE08BA3C
:100D4800D6ED09AA5FED627A07F5045596ED087AA3
:100D58002AEE8B0A03930C35A7EE270AFFF792FCBD
:100D68005FED687A039BA0EE279A002B73D0F0EE14
:100D78006A1AB0EE491AF0EE680AB0EE480A284638
:100D8800FFF7A4FC02251E9B07F505505246009369
:100D9800494601950830029BD4ED461A94ED451A50
:100DA800D4ED440A98ED010AFFF7E4FC1E9B07F511
:100DB8000550019500935A46029B4946D4ED461AC0
:100DC80024302B4494ED451AD4ED440A98ED020AD8
:100DD800FFF7D0FC0DB0BDEC088BBDE8F08FB9F182
:100DE800070F10D107F5805303F57F63BAF1000FA1
:100DF80007D032B9B7EE007A5FED896AC3ED393AA8
:100E0800F3E6C3ED399AF7EE006AB0EE667AECE6DF
:100E1800BAF1000F06D067EE054A1FED953A64EE69
:100E2800834A00E7F7EE004AFDE6BAF1000F02D068
:100E380066EE856A20E75FED986A1DE75FED9A5ACE
:100E480028E7BAF1000F1FED9C6A06FE077A3DE716
:100E58005FED9F6A48E7B2EE027ADDED077A1FED93
:100E6800A50A77EEC77AF4EEC07AF1EE10FA07D445
:100E78001FEDA90AF4EEC07AF1EE10FA30FE270A47
:100E880094F81C31ABB1FFF7FDFB5FEDAE7A60EE75
:100E9800277A94ED430A67EE8B7AA7EEA90AB4EE97
:100EA800CA0AF1EE10FA07DB002384ED43AA84F89E
:100EB8001C311FEDB70A01E084ED430AF0EE6A1A0F
:100EC800B0EE491AF0EE680A59E700234FF07E5257
:100ED8004FF00109C4F80C31C4F810214FF07C52CE
:100EE800C4F818310023C4F8142184F81C3149E7E8
:100EF800036E172B08DC40F8231001330A7381EDC9
:100F0800010AC1ED020A036670470000F7EE000A05
:100F18002DE9F84300F50655002600F5005704466C
:100F2800B0EE600A32468846C7F8E06100F54F61C6
:100F38002846FFF7DDFFDFEDA30A28463246B0EE6C
:100F4800600A04F68C51FFF7D3FFF7EE000A04F5A8
:100F58005F6928460122B0EE600A4946FFF7C8FFDC
:100F6800F7EE000A284601224946B0EE600AFFF76C
:100F7800BFFFF7EE000A284601224946B0EE600A94
:100F8800FFF7B6FFDFED8F0A04F5F5512846B0EEFE
:100F9800600A32461031FFF7ABFFDFED8B0A2846B7
:100FA8003246B0EE600A04F5F751FFF7A1FFF6EEFE
:100FB800000A04F5FF5128463246B0EE600A1031A7
:100FC800FFF796FFDFED800A28463246B0EE600A4A
:100FD8002146FFF78DFF2846DFED7C0A32469FED5C
:100FE800790A04F1B001FFF783FFDFED780A28469C
:100FF8003246B0EE600A04F58271FFF779FF2846A1
:10100800DFED720A32469FED6F0A04F59E71FFF715
:101018006FFFDFED6D0A28463246B0EE600A04F530
:10102800E071FFF765FFDFED690A28463246B0EE4A
:10103800600A04F51F71FFF75BFFDFED630A2846BE
:101048003246B0EE600A04F53171FFF751FF2846C9
:10105800DFED5D0A32469FED5E0A04F58561FFF714
:1010680047FF2846F7EE000A3246B8EE080A04F2AF
:10107800CC51FFF73DFFFFEE000A2846324604F543
:10108800BC61B0EE600AFFF733FF2846F7EE000AAE
:101098003246B8EE000A04F5CC61FFF729FF28466E
:1010A800BFEE000ADFED480A012204F5E861FFF708
:1010B8001FFF2846BFEE000ADFED430A012204F6AF
:1010C8008C01FFF715FFDFED400A28460122B0EE3C
:1010D800600A04F51D61FFF70BFFDFED3B0A2846A8
:1010E8000122B0EE600A04F68821FFF701FF2846C6
:1010F80004F50555DFED340A012204F6AC313C3520
:10110800B0EE600AFFF7F4FED7F8E0319E4245DB07
:10111800C7F8E030013B0025002607EE903A2D4A3B
:101128004FF0FF3304F50550F8EEE77AC7F8E420EE
:10113800C7F8F8300830C7F8EC50C7ED3A7AC7F866
:10114800F06087F8F460C7F8FC50FFF7FFFA04F581
:1011580005502430FFF7FAFA4FF07E53C7F80851CC
:10116800C7F810314FF07C53C7F80C51C7F8143149
:1011780004F5045304F50554C7F81851203387F8CB
:101188001C6187F80461C7F80051C7F844319C42D4
:1011980014D10023C7F84031BDE8F883D8F80430EB
:1011A800414655F8040F0136C8F80030D8F80C301D
:1011B800C8F8083003681B689847A5E743F8045B3C
:1011C800E5E700BF3333333FCDCC4C3F9A99193F05
:1011D800333333BFCDCC4C3D531E03EBD373F0B543
:1011E8005D100B46AB424FEA830429DBD5070ED4CA
:1011F800023A02EBD272B3EB620F08D10133044416
:101208005A0000EBC30353F8043C2360531E5A1ED4
:1012180002EBD2725210994200EB830425DA00EBFC
:101228008203D3ED007AB4EEE70AF1EE10FA1CDD82
:10123800531EC4ED007A03EBD37413466210EAE739
:101248005E1C044400EBC607730097ED007A57ED67
:10125800017AB4EEE77AF1EE10FA48BF03F1FF33F2
:1012680000EB830636682660BCE784ED000AF0BD13
:10127800884270B505460E462DED028B02D0041D3E
:10128800A64202D1BDEC028B70BD94ED008AD5ED6B
:10129800007AB4EEE78AF1EE10FA10D5621B042A40
:1012A80009DDC2F10400294620441FF03CFC85ED0D
:1012B800008A0434E4E708BFC4ED007AF7E7234660
:1012C80053ED017A1A1FB4EEE78AF1EE10FA02D450
:1012D80083ED008AEDE71346C2ED017AF0E72DE9C8
:1012E800F04104460D461746291B40291CDD4FEAEC
:1012F800A108C9108B00CFB90139E61836ED010AEB
:1013080042462046FFF768FF59B10139F6E735ED47
:10131800010A0021236820462A1B2B609210FFF740
:101328005BFF2B1B042BF2DCBDE8F0812344D4EDDA
:10133800016A261D55ED017A93ED007A2268F4EED4
:10134800C76AF1EE10FA32D5F4EEC77AF1EE10FA68
:1013580023DD84ED007A1A602A46D4ED006A33460C
:10136800D3ED007A1E460433F4EEE67AF1EE10FA75
:10137800F6D4134613ED017A043BF4EEC76A1A4615
:10138800F1EE10FAF6D49E4220D3013F29463046AA
:1013980035463A46FFF7A3FFA6E7F4EEE67AF1EE04
:1013A80010FA09DDC4ED007A45F8042CD4E7F4EE10
:1013B800E67AF1EE10FA03DDC4ED006A6260CBE76D
:1013C800F4EEC77AF1EE10FAC3DDEBE7A6EC017A8A
:1013D800C3ED007AC1E700F1100238B51CCA03EB6F
:1013E800021304F110052246F3EC017AB0EE007AFC
:1013F800F4EEC77AF1EE10FA0EDCE2EC017A9542CF
:10140800F2D1294620460422FFF769FF29462046E3
:10141800BDE83840FFF72CBFB6EE007A67EE877A52
:10142800E4E700008B68AF2B86BF0A68B03B002258
:1014380010B582BF02F1B0048B600C602B2B4261A7
:1014480085BF0A682C3B002202F12C0484BF8B6004
:101458000C600F2BC26185BF103B0A6800228B60AD
:1014680088BF02F110044FF00B0388BF0C600360C3
:10147800054B82614360054B83604FF03F43C36077
:101488000023036110BD00BF9A99993D00003041C7
:10149800436900222DE9F0411033D0F81CE0274CB5
:1014A800A3F11005A4460021BCEC017ADFED247AF3
:1014B800244F77EE277AFDEEE76AB8EEE66A16EE75
:1014C800908A77EEC67AFEEECC7A17EE906A07EB32
:1014D80086071D4E06EB8806D7ED007AD6ED006A22
:1014E80067EEA67AE5EC017ADFED187AB4EE677A52
:1014F800F1EE10FA15D0DFED167AB4EE677AF1EE58
:1015080010FA0ED0DFED137AB4EE677AF1EE10FA26
:1015180007D0F2EE087AB4EE677AF1EE10FA18BF47
:101528000131AB42C0D14EF80210043210331034EE
:101538002C2AB5D1FFF74FFFBDE8F0815C0F0224DC
:1015480000000043F4690324F86D03240AD7233C00
:10155800EC51E0400AD73F41F3EE047A2DE9F04719
:1015680020EE270AFDEEC07A17EE906AF8EEE77AC9
:1015780006F1030906F0030E30EE670A36EA26087C
:1015880028BFC846734203F003034FEAA80858BFB0
:10159800C3F1000ED0E9044303EB041C00242046E9
:1015A800C8F105050523B5EE007ADCED006A25448F
:1015B80095FBF3F707EB8707ED1B2F1DB7FBF3F33D
:1015C80003EB8303FF1AB9EB040348BF0333A645B3
:1015D8004FEAA30A4FF0010303FA0AF307EE903A21
:1015E800F8EEE77A67EE877A67EEA67A26D101EBFE
:1015F8008503C3ED007A77EEA77A01EB8703C3ED85
:10160800007A60EE077A02EB8703C3ED007AF7EE03
:10161800007A02EB850377EEC07A67EE877AC3ED2E
:10162800007ABEF1000F24D1012303FA05F52843FF
:10163800B5071BD01C460CF1040CB1E70ADD01EB21
:101648008703C3ED007A02EB870383ED007A6CB160
:101658000134F0E701EB8503C3ED007A02EB850363
:1016680083ED007A2CB9BEF1000FDDDD0123BB400C
:1016780018430134042CDED1BDE8F08770478B682D
:101688008F2B86BF0A68903B002210B584BF02F1F9
:1016980090048B6000F1180388BF0C6000F1C0044F
:1016A800C0F8B82000221846002143F8082C43F857
:1016B800042C30221FF050FA034638339C42F1D1F3
:1016C80010BDD0F8B83003F190029A4200D17047AB
:1016D800002143F8041BF8E7FDEEC07A0D4BF8EE45
:1016E800E77A30EE670ADFED0C7A60EE277ABDEE16
:1016F800E77A17EE102AB8EEC77A03EB820177EE85
:10170800C77A91ED000A91ED017A37EE407AA7EE9B
:10171800870A7047E42F032400000044DFED0B7AAA
:101728000B4B60EE277ABDEEE77A17EE102AB8EE7B
:10173800C77A03EB820177EEC77A91ED000A91ED43
:10174800017A37EE407AA7EE870A70470000004416
:10175800E42F0324F8B52DED088BB7EE008ADFEDF2
:10176800349AB6EE009A0E46B0EE60AA1446C8EE59
:10177800207A1F46002571EE086AF0EE41AAB0EE05
:1017880069BA77EEC87A87EEA67A07EE903AF8EE4D
:10179800677A77EEC87A29EE479A77EE877AA7EEC6
:1017A800809ABD4209D188EE297A224604EB850544
:1017B800AA4232D1BDEC088BF8BD07EE905AB5EEBF
:1017C800000AF8EEE77A77EEC97AF0EEE77A67EE84
:1017D8008A7A78EE676AAAEEA70AB0EEE67A37EE5A
:1017E800267A67EE078AFFF777FF54F8253030EE40
:1017F800080A013506EB830320EE280AD3ED007AA8
:1018080020EE000AB0EE677A90EE007AE7EE0B7AE7
:1018180079EEA79AC3ED007AC3E752F8043B06EBCA
:101828008303D3ED007A67EE877AC3ED007ABFE7CA
:101838006F12833AF0B52DED048BF6EE008A07EEB1
:10184800903A90ED018AA5B0B8EE677A0446B4EEF6
:10185800E80A17461E466D4608306B46F1EE10FA48
:101868004FF0000228FE800A70EE487AC7EE879A89
:1018780001321860B1EC016A0C3307EE902AF8EED9
:10188800E77AB7EE009AF0EE005A67EE807AF0EE4B
:10189800496AF4EEE87AF1EE10FA68FEA77AE7EE04
:1018A800E56AF0EC017A0C2A43ED027AD6EE267A44
:1018B800C7EE876A43ED016ADAD1013E0CD20D23E7
:1018C80084ED018A013BA5F10C0539D0D5F89020AB
:1018D800D5F894101160F5E738EE298A94ED000ADE
:1018E80038EE000AB4EEC90AF1EE10FAA8BF30EEDD
:1018F800490A84ED000AFFF711FF30EE000AB7EE3F
:10190800006A2B460022DFED106A60EE287A93ED1C
:10191800017A0132D3ED025A0C330C2A37EE257ABC
:10192800E7EE276A03ED027AB1EE467AB0EE676A0F
:10193800A0EE277AF0EE477AE9D1E7EC016ABCE736
:1019480025B0BDEC048BF0BD00000000B6EE007AB7
:1019580007EE903AF0B5B4EEC70A0446F8EE676AA7
:1019680017461E460830F1EE10FA4FF00D022DED25
:10197800068B50ED018A27FE000AA5B070EE687A42
:101988006D466B46C7EEA6AA07EE902A1860F1ECE2
:10199800015A01320C33F8EEE77AB7EE00AAB0EE3E
:1019A800005A67EE807AB0EE4A6AF4EEC77AF1EE32
:1019B80010FA67FE277AA7EEC56AF0EC017A192AB1
:1019C80043ED027AD5EE867A87EEA66A03ED016AC0
:1019D800DAD1013E0CD20D23C4ED018A013BA5F1F9
:1019E8000C054BD0D5F89020D5F894101160F5E788
:1019F80078EEAA8A94ED008A38EE888AB4EECA8A0C
:101A0800F1EE10FAA8BF38EE4A8AB0EE480A84ED23
:101A1800008AFFF783FEF2EE087A30EE009AB5EE00
:101A2800000AA8EE270AFFF757FEF0EE409AB2EE3A
:101A38000A0A28EE000AFFF74FFE2B4600229FED08
:101A4800117AD3ED017A0132D3ED026A0C330C2AF4
:101A580077EEA67AA7EE807A43ED027AF1EE697AFC
:101A6800F0EE409AE9EE007AB0EE670AE9D1F7ECB9
:101A7800017A77EE877A47ED017AAAE725B0BDECBF
:101A8800068BF0BD00000000F2EE027A91ED017ABB
:101A98002DE9F04137EE677ADFED477A04461646BE
:101AA8001F46B4EEE77A2DED048BF1EE10FADDF85F
:101AB800288007D4DFED417AB4EEE77AF1EE10FA28
:101AC80077FE877A9FED3E7AF3EE008A3D4A77EEFD
:101AD800877A9FED3D9AD1ED029AD4F8B850BDEEC1
:101AE800E77AB0EE690AF8EEC76A17EE100A9FEDBA
:101AF800377A77EEE67AD1ED046A66EEA88AFEEECA
:101B0800CC7A68EEA68A17EE903A02EB8302304B45
:101B1800B0EE681A03EB800392ED008A20462D4A46
:101B2800D3ED007A182328EE278ADFED2B7A28EEEA
:101B3800278AF7EE007AE6EEC77A91ED037A29460E
:101B480067EE877A9FED257A27EE877A27EE277A40
:101B5800A7EE279AF0EE490AFFF7FCFDB0EE480A17
:101B680029464346324604F11000FFF763FE05F1AB
:101B780030016035B0EE480A4346324604F1480069
:101B8800FFF7E4FEB0EE681AF0EE490A0823B0EE5B
:101B9800690A134A29462046FFF7DCFDB0EE480AD9
:101BA80043463A46294604F18000FFF743FEBDEC60
:101BB800048BBDE8F08100BF000000C30000FE42B6
:101BC80000000043F46903240AD7233C9A99193F7B
:101BD800F86D0324441002245196963952B8FE3FFA
:101BE8002410022470477047A0EE810A254BB6EEF8
:101BF800007AF7EE006AF1EE005AFDEEC07AF8EED0
:101C0800E77A70EE677AF4EEC77ABFEE007AF1EE03
:101C180010FA54BF36EEE76AB0EE676AA6EE257A88
:101C280037EE076AB0EEC77A37EE267A76EEC16AE3
:101C380086EE070AB6EE087A77EE877ABDEEE77A7F
:101C4800B8EEC77A77EEC77A9FED0F7A67EE877A94
:101C5800BDEEE77A17EE102A06EE102A03EB820192
:101C6800B8EEC66A91ED007A77EEC67A91ED016A10
:101C780036EE476AA7EE867A37EE407AA6EE870AEE
:101C8800704700BFE42F032400000044F8EE087AF0
:101C9800B4EEE70AF1EE10FA17D4F0EE087AB4EED3
:101CA800E70AF1EE10FA13DCF3EE0B7AF2EE026AB1
:101CB800B0EE677A60EE266AA0EE007AE0EE267A49
:101CC80020EE077A87EE270A7047BFEE000A7047B2
:101CD800B7EE000A70470000044B0360044B4360F2
:101CE800044B836000230361C360704722BA003D40
:101CF8000AD7233CCAAA7F3F70B5002500260446B0
:101D08008561C561056245628562C5620563456393
:101D1800C0E904663830FFF7DFFF04F18C00E564A2
:101D280025656565E5652566A5656566A566256716
:101D3800E566C4F88050E567C4F88450C4F8885054
:101D4800C4E92A66FFF7C8FF094BC4F8A050C4F8D5
:101D58008C304FF07C53C4F8A450C4F89030054B35
:101D6800C4F8B050C4F89430C4F8B45070BD00BF83
:101D780061C0AD3E013F473F2DE9F0412DED108B8D
:101D8800B0EE408A9FEDB10ADFEDB17AF0EE608ADD
:101D980021EE800A0446B1EE00DA0D46F0EE41DA93
:101DA800904687EEA0BA1F46DFEDAAEA169EF0EE2F
:101DB80061BAF0EE429AB0EE62AAFEF763FCDFED7C
:101DC800A67A28EE8DDAF7EE00CA20EE279A9FED64
:101DD800A30AF5EE00AA2DEE800AFEF753FC2DEEBD
:101DE80000DA7DEEAADAB4EEECDA6DEEAEDAF1EEF8
:101DF80010FA3CFE8DDAB8F1000F0ED0B1EE0C7A75
:101E08004FF49073F0EE087A3022C4E90023E8EE2C
:101E1800077A0023E361C4ED037A94ED09EA07EE3B
:101E2800906AB0EE4E7AF8EE677A9BEE887A87EE83
:101E380027FA013E05D284ED09EABDEC108BBDE816
:101E4800F0812268002A00F0AB80013AD4ED037AD1
:101E580022600AB977EEEC7A94ED04CA002D9FED62
:101E6800807AC4ED027A47FE877A37EECC7ADFEDC6
:101E78007D5A9FED7D6AA7EE25CA9FED7C7A84ED99
:101E880004CA37EECCCAA7EE87CAB5EEC0CAF1EECF
:101E980010FA09DA7CEE0C7A27EE867AF0EEE77A09
:101EA80077EEAC7A87EE27CA6268002A7FD0013ABB
:101EB800DFED6B7ADFED6E6A002A626046FEA76A84
:101EC800F7EE007A002D9FED667A94ED075A47FEEB
:101ED800877A94ED057AC4ED066A77EEC77AA7EE9D
:101EE800A57AF2EE045AFFEE007AE5EE257A84ED43
:101EF800057AF5EEC07AF1EE10FA09DA77EEA77AEC
:101F080027EE865AF0EEE77A77EEAC5AC5EE257AD8
:101F180077EE867A9FED576A27EE066AB0EE6C7AFE
:101F280067EEAE7AA6EE297AA7EE8A7A27EE287AA5
:101F3800B5EEC07AF1EE10FA42D4DFED4F7AB4EE86
:101F4800E77AF1EE10FA77FE877AE5B394ED0F7A27
:101F58003EEE0FEA37EE878AB4EEEC8AF1EE10FA1D
:101F6800A8BF38EE6C8AB0EE480A84ED0F8AFFF7F6
:101F7800D5FB6EEE00BA38EE2A0AFFF7CFFB2EEE3D
:101F8800000AEDEE8CBAD4ED087A84ED070A7BEEF0
:101F9800E7BAEBEE8D7AC4ED087AE7EC017A48E708
:101FA800D4ED027A9FED357A67EE877A54E7DFED54
:101FB800347AD4ED066A66EEA76ADFED297A81E7FE
:101FC800DFED277AC1E79FED2F6AF0EE6C5A9FED9F
:101FD8002E7A27EE866A9FED2D5AE7EE895AD4EDC0
:101FE8000DBA94ED0E0AA7EE867AB0EE6C6A67EE2B
:101FF800877A8CEEA57AC4ED0A7AA7EE276A84ED73
:102008000B7A27EE6B7AA7EEA76ACCEE865AB0EE6B
:102018004C6AA6EEC56AA6EE0B7AC4ED0C5AABEE76
:10202800E77A37EE407A27EE257AE7EE27BAABEE65
:10203800A70AF0EE6B6AE7EE276AB0EE407AABEEDD
:10204800A77AC4ED0D6A84ED0E7A9AE70000A042E3
:102058006F12833A0AD7A33D0080BB440000D842E0
:10206800000000005655553E3333333F5839343D50
:10207800CDCC4CBF9A99D93FCDCCCC3E5555653F78
:10208800B1E47F3FD7573941DB0F4940CDCC4C3EB7
:10209800074A08481168084B00FB013307EE903ADD
:1020A8001360B8EE670ADFED057A20EE270A70475D
:1020B800040000200D6619005FF36E3C0000802FBD
:1020C8002DE9F0412DED108B84B090ED00FAF7EE7C
:1020D80000EA9FEDDABA1A9E23EE033AF1EE00CA3F
:1020E8009FEDD77A07EE906AF0EE6E8A21EEA1DABC
:1020F8000446B8EE67CA0F4670EECF7A1546B0EEC2
:10210800409A9FEDD00AB0EE608A9846C7EE8CBA26
:10211800F2EE007A2DEE400AF0EE6EDAE0EEE78A93
:10212800F0EE6E7AF0EE419AF0EE62AAE3EE2C7AC7
:1021380028EE2C8AF4EECB8AF1EE10FA67EE877A55
:102148009FEDC17A48BFF0EE4B8A67EE877A68EE5A
:10215800828A8EEEA7AAFEF795FADFEDBC7AE0EE4A
:1021680067DA9FEDBB0A29EE800AFEF78BFA28EEA4
:10217800008AB4EEEE8AF1EE10FA3EEECAAA3EFEEE
:10218800888A7DB19FEDB37A3022DFEDB37A3E23A2
:10219800C4ED03EAE9EE077AC4E91423C4ED077A2B
:1021A800C4ED057AD4ED09FAF0EE6F7ADDEE097A1E
:1021B80087EE8CEA46B9C4ED09FA84ED00FA04B05A
:1021C800BDEC108BBDE8F081FFF762FFB6EE007A38
:1021D800D4ED020AB0EE089ADFEDA07AF0EE00CA5C
:1021E80030EE470A9FED9CCA9FED9DDA30EE600AFB
:1021F800E0EE270AC4ED020A87B33FEE2BFA94ED0E
:10220800010AB0EE681A7FEE8EFA3FEE000AB4EECD
:10221800EE0AF1EE10FAA8BF30EE6E0A84ED010A5C
:10222800FFF7E2FC30EE4D0A20EE2F0A20EE099A65
:10223800B0EEC00A30EE2C0AC9EE007AEFEE8C7AC6
:102248007BEE677A94ED0A7A013E77EEC77AA7EEBD
:10225800887A84ED0A7AA8EC017AABE7626DD4ED4E
:10226800047A002A00F0B480B5EE007A013A62657B
:10227800B0EE470A206D84ED017A002800F0CE8088
:1022880001382065D4ED066AB0EE681A94ED057A37
:10229800F6EE004A9FED735A37EE667A94ED076AB8
:1022A800E7EE056A94ED087A36EE476AA6EE057AF7
:1022B80094ED036AC4ED066A36EE676ACDED036AEB
:1022C800E6EE057A84ED087A8DED027AC4ED047A9B
:1022D800FFF78AFCB7EE006A0028DFED587A94ED24
:1022E8000F4A06FE276AD4ED0B7A8DED010A36EE09
:1022F800676AB5EEC06AF1EE10FA34FE855AE6EE6A
:10230800057A94ED0C5A9FED586A77EEC54AC4EDEC
:102318000B7AA4EE865A94ED106AD4ED0E4A77EE45
:10232800C57A84ED0C5A94ED115AE4EEC67AD4EDD0
:102338000D4AE6EE647A77EEC57A67EE847AA4EE03
:10234800A76AA4EE865AB0EE464AA4EEA74AF0EE73
:10235800457A8DED005AE4EE867A84ED104AC4ED94
:10236800117AFFF795FED4ED127A9FED406A30EEB0
:10237800670ADDED015ADDED036ADFED3D4AE0EE67
:10238800067A94ED136A35EECD0A9DED005A9DED5F
:10239800027A20EE260A37EEC64AC4ED127A20EEFB
:1023A800099AB0EEC00AA4EE246A30EE2C0A77EE41
:1023B800C67A84ED136A37EE856AC9EE007A26EE8E
:1023C800477AE6EE8C7A7BEE677AE9EE877A39E728
:1023D800D4ED036AB0EE0C6A3FEE2BFA66EE8A6A19
:1023E8002AEE866AC4ED036AF0EE6E6AE6EE276AA4
:1023F80066EE8F6AF4EEC76AF1EE10FA37FE260A27
:1024080094ED017A30EE070AB4EEEE0AF1EE10FA16
:10241800A8BF30EE6E0AB0EE407A2BE7D4ED056A1D
:1024280094ED077A66EEAD6AC4ED056ADFED116AD0
:1024380027EE267A84ED077A24E700BF0000000023
:102448006F12033C0000704200803B478988883A3D
:102458000000D8423333333F9A99993E6F12033BB9
:102468009A99193FCDCCCC3D0AD7233DCDCC4C3DD4
:102478000AD7A33BEFEE7E3FB2EE027AD1ED017AA6
:102488009FED7D0A77EEC77A2DE9F04FF4EEC07A1A
:1024980005460C4693469846F1EE10FA2DED088B4A
:1024A80083B007D49FED750AF4EEC07AF1EE10FA06
:1024B80030FE270AFEF7E6F8F1EE002A94ED047ADA
:1024C800F7EE008ADFED6E7A67EE222A9FED6D9AAD
:1024D80060EE279AF4EEE82AF1EE10FA38FEA22A06
:1024E80072EEE82AF4EEE82AF1EE10FA00F3AE8074
:1024F800F4EE492AF1EE10FA48BFF0EE492AB0EEA0
:1025080000AA2668FFEE007A149BF3EE006AC6F371
:10251800400906F0020A06F00106E7EE0A7A00937F
:10252800F0EE690A5B46D4ED031A324694ED021ABE
:10253800494694ED050A05F11000F5EEC07AF1EE72
:1025480010FA54BFB0EE677AB0EE497AF0EE687AC6
:10255800E9EEE67AF5EEC07AF1EE10FA48BFF0EE51
:10256800497A27EE878AFFF707FCB6EE006A9FEDE7
:10257800460AF3EE085AB0EE467AA8EE067A67EEF7
:10258800077A3AEE47AA67EEA76A2AEE07AA66EE26
:10259800876A66EEA56AE7EE466A27EEA68AA7EE80
:1025A800068A78EE407AAAEE270AFFF76FFBDDED80
:1025B800147A95ED2CAAB8EE677A149FC8EE807A43
:1025C80038EE4A8AC8EE07AA95ED2D8A77EEC87AC2
:1025D80087EE87BA013F3CD285ED2D8A05F1580078
:1025E80085ED2CAA94ED050A94ED021AD4ED031A90
:1025F800D4ED042ABAF1000F3AD1F5EE007A9FED36
:10260800232A61EEA77AA1EEE72A72EEA22A149B8A
:10261800F0EE690A32460093494672EEE87A43467C
:10262800F5EEC07AF1EE10FAF4EEE82A54BFB0EEF7
:10263800673AB0EE493AF1EE10FA78FEA22AFFF7AF
:102648003FFD03B0BDEC088BBDE8F08FF0EE682AC3
:1026580055E73AEE2AAA9BED000A38EE0B8A2AEED5
:10266800000AFFF713FB20EE080AABEC010AB1E7FA
:10267800B0EE622AC9E700BF000000C30000FE42B6
:102688005196963900000000C3F5A83ECDCCCC3E4B
:102698007047000070B505460346A0302A4600265C
:1026A800002420331C3243F8086C124E43F8104CB7
:1026B80043F80C4C43F8046C1C605C609C60DC6064
:1026C8008342C2F89440C2F89840C2F89C40C2F8CD
:1026D800A040C2F8A440C2F8AC40C2F8A840DED17D
:1026E80005F59E70FEF79EFEC5F85C41C5F8604191
:1026F80070BD00BF6F12833A00F59E70FEF7C8BE2A
:10270800F0B52DED048BF2EE008A89B0F0EE609AF8
:10271800044616461F4620EE289A0025B6EE008A83
:10272800B4EEC89AF1EE10FA6FDC072D69D801AB48
:102738004FEA850C03EB850098426AD1C5F107057D
:10274800AA00042A69D91EF041FAB0EE003ADDED7C
:10275800026A9DED017A07EE907AD4ED045AA6EE4E
:10276800837ADDED044AB0EE655A94ED036AF8EE1B
:10277800677AD4ED013A39EE460AA36897EE295AEA
:102788009DED037A80EE279A37EE667A85EE271A52
:1027980094ED055AA4EE837AF0EE456AD7EE296ADD
:1027A8009DED057A37EE647AD4ED064AB0EE644AB8
:1027B800C6EEA71ADDED066AA6EE837A97EE294AD9
:1027C8009DED077A37EE667A84EE272A94ED074A5C
:1027D800F0EE446AD7EE296AC6EEA72AD4ED006A5D
:1027E800013F22D2C4ED013AC4ED006AA36084ED32
:1027F800074AC4ED064A84ED055AC4ED045A84ED2F
:10280800036A09B0BDEC048BF0BD29EE089A0235C5
:1028180084E7002243F8042B8EE70CF120030DEB2C
:10282800030C0B684CF81C3C8FE736EE096A75EE12
:10283800815A35EE215A76EE866A74EE824A34EE73
:10284800224AFDEEE67AF7EE000A17EE901ADFED5F
:102858003B7A8B4230D0082909D176EEE86A00210C
:1028680037EEE57A37EE457A37EE647A05E08A077F
:10287800B0EE677AF6D0CB07F6D537EE447AB5EEE8
:10288800407AF1EE10FA55D000EE101AF8EEC09A20
:1028980076EEE99A89EE860A60EE089A69EE809AE1
:1028A80030EEC00AE7EE293AFEEE009A60EE299A69
:1028B80029EE800AE7EE007AB1EE007A01F004030F
:1028C800B4EE000A36EEC77A27EE257AE7EE007AEC
:1028D80007EE103AB5EE000A01F00603B8EEC77A23
:1028E80036EEC77A37EE437A27EE057AE7EE007AB6
:1028F80007EE103A01F00703B8EEC77A36EEC77A4A
:1029080037EE607AF6EC010AE3EE830A27EE247AC2
:10291800E7EE087A07EE103A0B46B8EEC77A46EDAE
:10292800010A36EEC77A37EE487AE7EE047AF0EE17
:10293800673A55E7DFED017ABEE700BF0000000007
:10294800DFED0E7A18200E4B20EE270AFDEEC07A36
:10295800B8EEE77A17EE902A00FB02330A1830EE39
:10296800470AF3EC017A93ED057A37EE677AE7EEDA
:10297800007AE1EC017A9142F3D17047CFF7DF405A
:102988001011022430F9113000EB410007EE103A23
:10299800B0F9023007EE903AB8EEC77AF8EEE77A67
:1029A80077EEC77AA7EE807AB0EE470A7047000044
:1029B800B0EE407A9FED580A2DE9F041B4EEC07AA6
:1029C80004460F4616461D46F1EE10FA2DED0E8B05
:1029D80007D4F5EE007AB4EEE77AF1EE10FA37FE96
:1029E800870AF7EE00AAD4ED019AF0EE007A94ED8A
:1029F80002BA70EE696A94ED03AAB0EE6A7AD4ED71
:102A080004BAD4ED008AA0EE677A07EE905AF8EE81
:102A1800677AC6EEA7DADFED416A20EE260A67EE8E
:102A2800200AB0EE4B7ACAEE806A96EEA07ADFED05
:102A38003C6AC7EE27EAB0EE4A7A91EE267A87EE2C
:102A480027EA013D0DD2C4ED04BAC4ED008A84ED35
:102A580003AA84ED02BAC4ED019ABDEC0E8BBDE861
:102A6800F08179EEAD9A9FED2F8A3AEE0EAA3BEEF1
:102A78002EBA29EE88CA78EEA98AFDEECA7AB4EE93
:102A8800EACA17EE903AF8EEE7CAF1EE10FAF4EE59
:102A9800EA8A4FEA830857F823007AEE6CCA3AFEAE
:102AA8008CCAB844F1EE10FAA8BF78EEEA8A28EE8C
:102AB800888ABDEEC8DAF8EECD7A1DEE101A38EE27
:102AC800678AB0EE480AFFF75DFFB0EE409AD8F883
:102AD8000400B0EE480A1DEE101AFFF753FF30EE5F
:102AE800490A94ED067AD4ED057AA0EE2C9A39EECF
:102AF800477A84ED069A37EE677AECEE077AC4EDEA
:102B0800057A77EEEB7AE7EE8CBAF6EC017AEBEE23
:102B18008B7A46ED017A94E795BFD63300000048DA
:102B280097FF5F410000004390ED577AD1ED037A9B
:102B38009FEDB06A77EEC77AD0ED586AD0ED515A5A
:102B4800A7EE867AD1ED027A77EEE67A2DE9F04F94
:102B5800E7EE866ADFEDA87A91ED046A1D46044621
:102B68000F4626EE276AD0ED527A164600F59E7873
:102B7800E6EE257A90ED536AD0ED505AB8EEC66A63
:102B88002DED068B9FED9D8AF7EE009A97B080EDAC
:102B9800577A77EE887AC0ED586AF4EEC67ABFEEB7
:102BA800006AF1EE10FA36FE296AE5EE867AB6EE8C
:102BB800006A77EE867AFDEEE77A17EE903A002BF8
:102BC800C0F2F980D0F83C21934200DB531EB0EEEE
:102BD800690ADFED8B8AC4F84C310EA92046A7EEAE
:102BE800680AB5EEC00AF1EE10FA48BFB0EE480A1E
:102BF800FFF7A6FE04AAB0EE660A09A940468DEDC5
:102C0800148AFEF7A9FC269B02904FEA830B06EB79
:102C1800830233469A4240F0D08005EB0B022B46E4
:102C28009A4240F0CD80F2EE027A97ED017A37EEC3
:102C3800677ADFED747AB4EEE77AF1EE10FA07D42A
:102C4800DFED717AB4EEE77AF1EE10FA77FE877A63
:102C58009FED6E7A04AF6E4A04F1100A77EE877A18
:102C680004F1B0094FF00008BDEEE77AF8EEC76A44
:102C780017EE101A9FED677A77EEE67AFEEECC7AB9
:102C880017EE903A02EB8302634B03EB810392ED5C
:102C9800009AD3ED007A614B29EE279ADFED607A2E
:102CA800019309AB29EE279ADFED5E7A009329EEAE
:102CB800279AD4ED577A77EEC77A67EEA87AF5EEB9
:102CC800C07AF1EE10FA54BFF0EE678AF0EE488A47
:102CD800019BD4ED577AB3EC017A77EEC77A9FED72
:102CE800527A019367EE877AF5EEC07AF1EE10FA20
:102CF80069D4F4EEE97AF1EE10FA79FEA77A029B2C
:102D0800B1EE007A9FED496A79EEE76A43FA08F373
:102D180013F0010F009BB3EC01AA0CBF32462A4600
:102D28002AEE09AA0093AAEE467AB5EEC07AF1EE29
:102D380010FA4BD4B4EEE97AF1EE10FA39FE877A3C
:102D4800F5EE407A27EE268AF1EE10FA10D0D7ED8C
:102D5800000AB0EE681A9FED360A484667EEA00AE8
:102D6800269B2AEE000A33490392FFF721FE039AB5
:102D7800B5EE408AF1EE10FA0AD0D7ED000AB0EEAF
:102D88004A0A269B0EA968EE200A5046FFF7B8FCAF
:102D980008F1010804370AF1200A09F11C09B8F101
:102DA800050F95D105EB0B03AB4212D117B0BDEC63
:102DB800068BBDE8F08F002309E7A3EC018A29E719
:102DC800A3EC018A2CE7DFED0D7A98E79FED0B7AEB
:102DD800B6E795ED007AD6ED007A77EE877AB0EE11
:102DE800087AE6EC017AF5EC017A67EE877A45ED28
:102DF800017AD9E7CDCCCC3D5C8F823F0000000042
:102E08009A990940000000C30000FE4200000043F8
:102E1800F4690324C3F5083FF86D0324D011022494
:102E280051969639EE7C7F3F0000484200000042F0
:102E38001283803FD4100224704700000023C0E9A9
:102E480004338361034BC3610362002343628362DB
:102E5800C36270475196963A70470000F2EE027AC4
:102E680030EE670ADFED177AB4EEE70AF1EE10FAF2
:102E780007D4DFED157AB4EEE70AF1EE10FA77FE23
:102E8800807A9FED127A124A77EE877A9FED110ABF
:102E9800BDEEE77AF8EEC76A17EE101A77EEE67A13
:102EA800FEEECC7A17EE903A02EB83020A4B03EB64
:102EB8008103D2ED007A93ED007A67EE877A27EEE8
:102EC800800A7047000000C30000FE420000004373
:102ED800F469032451969639F86D0324DFED117ACD
:102EE800DFED116A30EE270ADFED107A20EE270AAF
:102EF800BCEEC00A10EE103A00EB83100C4BC20D6A
:102F080003EB8201430291ED000A07EE903A91ED3E
:102F1800017AF8EE677A37EE407A67EEA67AA7EE7E
:102F2800270A7047000000420000802F0000804CF4
:102F3800E42F0324F3EE087A9FED997A2DE9F04FF8
:102F48002DED108B91ED019A17469846954B39EE69
:102F5800679AD1ED047A0D4685B067EE877A044604
:102F68001E9EBDEEE77A17EE102AB8EEC77A03EB7D
:102F7800820177EEC77A91ED008A91ED017A37EEFA
:102F8800487AA7EE878A39EE088AB0EE480AFFF732
:102F980065FFB5EEC00AF1EE10FA67D4F6EE008AC6
:102FA800B4EEE80AF1EE10FA78FE808AB7EE00CAAD
:102FB800DFED7D7A9FED7D7A38EE678AF0EE4C7A08
:102FC800E8EE477AF5EEC07AF1EE10FA51D4F4EE55
:102FD800CC7AF1EE10FA7CFE277AB0EE490A27EE99
:102FE800A78AFFF73BFF07EE906A94ED08DAD5ED64
:102FF800026AF8EE677A95ED036A78EECD8AD4ED29
:1030080007CA36EEA67AD4ED0DDA30EE6C0A94EDE6
:103018000CFAC8EEA7EAD4ED098A27EE267AF0EE74
:10302800686A80EE27EAD7EE086A94ED0A8ABFEE4E
:10303800007AC6EEA7FAF0EE006AA6EE267A37EE18
:10304800487AC7EE276A013E16D284ED0CFAC4ED21
:103058000DDA84ED0A8AC4ED098A84ED08DAC4ED34
:1030680007CA05B0BDEC108BBDE8F08FDFED508AC4
:103078009CE7DFED4F7AB0E738EE268ADFED4D7A30
:103088007CEE8ECADFED4AAA3DEE2EDA0025B5EEBB
:10309800C08A2CEEA7BA78EEAF8AF1EE10FABCEE31
:1030A800CB7A2DEE276A4CBFB6EE00AA9FED40AA58
:1030B80017EE103AF0EE6ABA8DED017A48BF28EEA5
:1030C8000AAA4FEA530A48BF2AEE08AAF0EE4C7A39
:1030D800D4ED0B9AB5EEC08A6369B5EE00BA019AD1
:1030E800E9EE8A7ACDED036AF1EE10FA8DED026A07
:1030F800CCBF28EE0B0A9FED2E0A66EE277AC8BFD2
:1031080020EE080AFCEEE77A29EE800A17EE900A0C
:103118001844236902EB030BA36960610AEB0309F6
:10312800C4F810B0C4F81890FFF7D8FE584620EE3F
:10313800280AFFF7D3FEB0EE409A20EE280A484648
:1031480020EE0B0AFFF7CAFE39EE697ADFED1A7A2C
:1031580085F00302194BE7EE279A9DED026A03EB0F
:103168008202DDED036A03EB85030135042DC4ED0E
:103178000B9A92ED007AD3ED007AE9EE07DAE9EEE0
:1031880027BAA0EE07FAE0EE27AA9FD1E7EC01DA0A
:10319800F0EE6BDAA8EC01FAB0EE6AFA53E700BF7A
:1031A80000000043DC2D032400009042CDCCCC3C31
:1031B800000000000000804FCDCC4C3DA418032433
:1031C8007047704700230F490F4A036143618361C9
:1031D800C361036243628362C362036343638363BD
:1031E800C363036443648364C3640365436583659D
:1031F800C365036643668166C26603674167826783
:10320800C367704722BA003D2033783F08B52DEDDB
:103218000A8BF5EE00BAB6EE00BAF0EE40AAB0EEB0
:103228006B0AB0EE429AB0EE41CAA0EE8B0AF0EEFD
:10323800618AFEF751FADFED2F7AB7EE008AB4EE15
:10324800E79A70EE089AF1EE10FA69EE8B9A2CD58F
:10325800F7EE087AB0EE6BAAA9EE27AAB0EE489A64
:103268003AEE0C0AFEF738FAF4EECB8AB0EE40AA32
:10327800F1EE10FA34D5F4EECBAA78EEA88A3AEE3D
:10328800AB0AF1EE10FAA8BF69EEA89AFEF724FA85
:1032980030EE480AA8EE808A3AEE09AA9AEE299AF0
:1032A80029EE080ABDEC0A8B08BDDFED137AB6EEED
:1032B800087A9FED12AA79EE677AA7EEC7AADFED22
:1032C800107AB4EEE79AF1EE10FA06D5B0EE4A0A93
:1032D800FEF702FAB1EE409AC2E79FED0A9ABFE7FD
:1032E800B0EE6A0AA8EE8B0AFEF7F6F9B0EE408A4D
:1032F800D2E700BFFA7EAA3EC3F5A83E3BDF3F3FB8
:10330800FA7E2A3F6F12833AB0EE087AF0EE407ADE
:10331800B6EE080A21EE071A08B5BDEEC17A2DED02
:10332800068B17EE103AB8EEC77AB7EE008AB0EE01
:10333800609A31EE471AF0EE618AB5EE00AA38EECF
:10334800411A43BB61EE016AB2EE0E6AB0EE487AEA
:1033580066EE816AA6EE867A67EE877AF4EEC87A18
:10336800F1EE10FA68FE277A37EE800AFEF7B4F914
:1033780070EE089AB0EE490AFEF7AEF970EE287AB8
:1033880069EE8A9A38EE880A67EEA97ABDEC068B50
:1033980087EE800A08BD012BF6EE006A1ED19FED6C
:1033A8001A6A9FED1A7A21EE066A26EE016AA1EEE4
:1033B800067AF4EEC77AF1EE10FA5BBF77EEC77AB9
:1033C80038EE477A86EE876A27EEA66A56BFC6EEBB
:1033D800077A66EE277A77EEA67AC5E738EE411ABD
:1033E800B2EE0D6A21EE017A27EE017AE7EE066A5F
:1033F800B0EE4A7AA7EEA67AB4EEC07AF1EE10FAE9
:1034080020FE070AB2E700BFEE7CFF3E6F12833A48
:1034180007EE902A90ED067AF8EE676AF4EE007AE5
:1034280071EEC71AB4EEE70A70B5F1EE10FA044669
:103438000E4615462DED0E8B67FE807AD0ED039A69
:10344800C1EEA6CA90ED049A90ED02DA77EEE97A19
:10345800C7EEA6AAF5EE007AF4EEE70AF1EE10FA46
:1034680067FEA07A77EEC97A87EEA6CAD0ED057A0C
:1034780031EE671AC1EE26BA013D0CD284ED02DAAC
:1034880084ED049AC4ED039A84ED067AC4ED057AB6
:10349800BDEC0E8B70BD79EEAA9AD4ED008AB7EE1A
:1034A800000AD4ED010A39EE0C9A9FED308A79EEC4
:1034B800A88A37EE2CBA37EEABAAF4EEC08AC4ED70
:1034C800008AF1EE10FA46DB78EEC08A88EEA9EAA7
:1034D800C4ED008A70EE4EDAEDEEAB7AADEEAC7A62
:1034E800EDEE890AB0EE671AF0EE471AFFF70CFF07
:1034F800F0EE480AF0EE40EAF0EE4B1AB0EE480A59
:10350800B0EE4A1AFFF700FFF6EE007A30EE6E0AC8
:103518006EEE090A6EEE277A67EE8E7AA0EE27DA4B
:10352800FEEE007A6DEEA77A67EEAD7AA0EE278AF6
:10353800F0EE4B1AC4ED010AB0EE4A1AB0EE680A72
:10354800FFF7E2FEA6EC01DAB0EE4B7AF0EE4A7A2B
:1035580038EE00DA90E770EE890AF4EEC00AF1EE70
:1035680010FAA8BF70EEC00AE2E700BF0000000032
:1035780007EE902AB8EE677AF4EE007A70B5B4EEEA
:10358800E70A04460E461546F1EE10FA2DED108BAB
:1035980090ED04AA67FE807AD0ED05AA84B077EE94
:1035A800CA7A90ED06BAD0ED07EA31EE4B1A90EDE3
:1035B80003FA87EE87EAF5EE007A71EEEE1AC1EEAD
:1035C80007BAF4EEE70A81EE87CAF1EE10FA67FE51
:1035D800A07A77EEEA7AC7EE87DA013D0DD284ED5C
:1035E80003FAC4ED07EA84ED06BAC4ED05AA84ED32
:1035F80004AA04B0BDEC108B70BD3AEE0EAAD4ED4F
:10360800018AB7EE009A94ED008A7AEEADAA94ED9D
:10361800021A7AEE0A7ADFED4C9A3AEE088A7EEEC2
:103628008CCA77EEA88A3BEE2BDA84ED008AF4EE9A
:10363800C98AC4ED018AF1EE10FA78DB78EEC98AFE
:10364800B4EEC98AB6EE007AC8EEA76AC4ED018A5C
:103658008DED037AF1EE10FAF0EE4B1AB0EE6E2A09
:10366800ADBFF0EE697AF0EE477AB0EE470AB0EEF9
:10367800490AF7EE000ACDED027A79EE66FACDED49
:10368800016AAFEE8C2AEFEEAB1AAFEEAA1AFFF77B
:10369800BDFD9FED2D1ADDED027AB0EE40BAF0EED9
:1036A800410AB0EE670AB0EE6C2AF0EE4D1AFFF749
:1036B800ADFDDDED016A9DED037A30EE4B0AB4EE07
:1036C800C98A66EE877A26EEAA1AF1EE10FA67EE34
:1036D800A67A84ED021AA0EE27FAFEEE007A6FEEC3
:1036E800A77A67EEAF7AE0EE279A03DD28EE878A9D
:1036F80084ED008AB4EEC98AB0EE6C2AF0EE4D1A59
:10370800F1EE10FAF0EE680AB0EE4DBAA8BF38EE46
:10371800498AF0EE6CEAB0EE480AA8BF84ED008A48
:10372800FFF774FDA6EC01FA39EE80FA55E73AEE98
:10373800811AB4EEC91AF1EE10FAA8BF31EE491A8F
:1037480084ED021AD6E700BF000000002DE9F04121
:103758002DED088BD1ED019AF3EE08BA0F46044619
:10376800B0EE690A16461D46FFF778FBF0EE408A70
:1037780097ED027AB0EE6B0ADFED657AB7EE00AA34
:10378800DDF83880B0EE008AA7EE270AFFF766FB5F
:10379800F0EE40AABBEE080A97ED049ADFED5D7AD9
:1037A800A9EE270AFCF76EFFF6EE007AF0EE4A6AF9
:1037B8003146B0EE40BA4246B4EEE79ADFED567AAB
:1037C800E8EEEB6A04F11000F0EE6A0AF1EE10FA86
:1037D800B0EE680A4CBFB0EE4A7AB0EE677AF5EE02
:1037E800C06A48BFA9EE487A9FED4C9AF1EE10FAEC
:1037F80058BFF0EE667A38EE478A28EE078A97EDCA
:10380800037A37EE497AF0EE481AA7EE279AB0EE17
:10381800491AFFF7FDFDF0EE481A9FED418AB0EE18
:10382800491A424629466AEE8B0A04F12C00B0EE8A
:10383800680AFFF7EDFD28EE888A9FED3A7A32464E
:10384800DFED397A2B4628EE077A4FEA880602EB35
:103858008801E8EE077A28EE278A78EE0A7A84ED5E
:103868001A8A8AEE279A84ED1B9A914222D1B0EEE9
:10387800690A97ED027ADFED2D7A2E44A7EE270A22
:10388800FFF7ECFA4246F0EE400A2946B0EE680A25
:10389800D7ED041A97ED031A04F14800FFF768FE04
:1038A80084ED1D8A84ED1E9AB5421CD1BDEC088BAF
:1038B800BDE8F081B3EC017AD2ED007AD4ED1C6A50
:1038C80077EE877A94ED1A7A94ED1B6AE7EE876AA9
:1038D800E6EEC67A27EE277AA6EE867A84ED1C7A7B
:1038E800E2EC017AC1E795ED007AD4ED1D7AD4EDCA
:1038F8001F6A94ED1E6AE7EE276AA6EEC67A67EE9F
:10390800877AE6EE867AC4ED1F7AA5EC017ACBE7D2
:103918000000A8420000404200000000C3F5A83E95
:103928009A99993ED7573941DB0F49400000C04268
:103938007047704770B50025044600F120030E4615
:103948000561383040F8245C40F8205C40F81C5C85
:10395800984233D1FEF7C0F904F14C00FEF7BCF9E8
:10396800234604F1A80125666566A566E5664FF05D
:103978007E504FF07C525D671C33D86501205A6534
:1039880083F864000F481D669866DA669942EED19E
:1039980004F58C70FEF7A0F904F59670FEF79CF913
:1039A800B368BF2B85BF3268C03B002202F1C0015B
:1039B80084BFB3603160C4F8402170BD002243F871
:1039C800042BC5E76F12833A9FED997A30EE077A98
:1039D800F0B5C0EE077A9FED977A87B00C9C03EBA1
:1039E80084051C4627EE877A8DED007A9FED927A42
:1039F80027EE877A8DED017A9FED907A27EE877A08
:103A08008DED027A9FED8E7A27EE877A8DED037A17
:103A18009FED8C7A27EE877A8DED047AB4EE0C7AD6
:103A280067EE877ACDED057AA54266D16E4600F13C
:103A3800A80E96ED007A9FED843AB4EEC37AF1EEC3
:103A480010FA5ED4F5EE007AB4EEE77AF1EE10FAE9
:103A580077FE877ADDED0C6AB6EE004A90ED057ABE
:103A68000D46F8EE663AD0ED066A77EEC77A90ED25
:103A7800016A0C9C87EEA32A74EE667AC7EEA31A35
:103A8800013C41D280ED057A96ED017A80ED016A1C
:103A9800B4EEC37AC0ED066AF1EE10FA00F18C803C
:103AA800F5EE007AB4EEE77AF1EE10FA77FE877A4F
:103AB80090ED0C7A154690ED0D5A77EEC77A90ED99
:103AC800086A0C9C87EEA33A74EE457AC7EEA32ADF
:103AD800013C74D20C9C1D4694460F4680ED086A42
:103AE80080ED0D5A80ED0C7A013C80F096803830DC
:103AF800083686459DD107B0F0BD002644F8046B12
:103B080092E7F0EE437AA5E737EE027AD0ED007A35
:103B180076EEA16A90F810C0B7EE005ADFED4B5A66
:103B280077EE277AF4EEE76AC0ED007AF1EE10FA44
:103B380094BF01270027BC4510D077EEE62A07740A
:103B4800C2EE874A64EE842AA4EEA26A75EE644A3D
:103B5800FEEE002A64EEA22AE4EEA25AF4EEC57A3A
:103B6800F1EE10FA13DB77EEC57A00270774C7EE7B
:103B7800874AC0ED007A64EE842A35EE645AA4EED2
:103B8800E26AFEEE004A65EE244AE5EE645AF4EE77
:103B9800E76ADFED2E7AB7EE005AF0EE004AF1EE52
:103BA80010FA77FE857ABFEE005AA6EE245A35EE53
:103BB800A76AA5EC015A63E7DFED237A78E737EEC9
:103BC800037AD0ED077AF7EE006ADFED205A35EE7A
:103BD800225A77EE277AF4EEE67AF1EE10FA0FDB46
:103BE80077EEE67AC7EE874A64EE843A76EEE46AC0
:103BF800A4EEE36AFEEE004A66EEA44AE6EEE45A54
:103C0800F0EE004AC0ED077AFFEE006AE6EE246A9D
:103C180035EEA76AE5EC016A5AE7F7EC016ABCECF5
:103C2800017AF5EC017AE6EE877A45ED017A5BE7F1
:103C38000AD7233C8988883BD7A3203E7B142E3C97
:103C480044442C3E602C793CBD378635000000008A
:103C580060EE007ADFED156A9FED157AA7EEA67A79
:103C6800DFED146AE7EE876A9FED137AA7EEA67A6E
:103C7800DFED126AE7EE876A9FED117AA7EEA67A62
:103C880020EE070AB7EE007A80ED000AC7EE206A38
:103C9800F0EE477AE6EE807AC0ED016AE0EE007A4F
:103CA800C7EE276AC0ED026A704700BF23FE2E45A3
:103CB80090ECAC428F34214365482342A95D2541ED
:103CC800DB0F4940D0ED036A90ED047A013B04D242
:103CD800C0ED036A80ED047A704790ED016AF1EC5B
:103CE800017AD0ED025AE6EE667A90ED006AE6EEC9
:103CF800667A77EEC77A67EEA57AE6EE276AF0EE7F
:103D0800665AE6EE276AA6EE257AE2EC015AA6EE96
:103D1800257ADBE7D0ED036A90ED047A013B04D203
:103D2800C0ED036A80ED047A704790ED016AF1EC0A
:103D3800017AD0ED025AE6EE667A90ED006AE6EE78
:103D4800667A77EEC77A67EEA57AE6EE276AE2EC3E
:103D5800017AF0EE665AE6EE276AA6EE257AA6EE16
:103D6800257ADBE72DE9F0472DED088BF7EE00BA51
:103D780082B0B0EE40BA9FED7B0AB1EE61AA04466C
:103D880021EEC00A8846F0EE6B9A9146F0EE608A02
:103D98001F46B0EE419AF0EE61AAB0EE428AFCF7F7
:103DA80071FCDFED717AE0EE679A9FED700A2AEEFA
:103DB800000AB0EE6BAAFCF765FCDFED6D7ADDE971
:103DC8001356A0EE67AAB9F1000F11D07BEEEA6A8C
:103DD800B6EE007AF7EE087AE6EE877ADFED656AE6
:103DE8009FED657AABEE267A67EE877AC4ED007AA6
:103DF80038EEA80A2B46129A394604F110000096AC
:103E0800FFF7E2FD9FED5D0A29EE000AFCF73AFC98
:103E1800DFED5B7A20EE270AB5EEC00AF1EE10FA64
:103E280059D49FED589AB4EEC90AF1EE10FA39FE4A
:103E3800009A04F1B807F7EE000AB0EE490A3846CE
:103E4800FFF706FF33462A4629463846FFF73AFF6A
:103E580028EE088AF3EE000A7BEEC87AE7EEA00A9D
:103E680060EEA80AF5EEC00AF1EE10FA36D4F6EEC6
:103E7800008AF4EEE80AF1EE10FA78FEA08A2F46DE
:103E8800AA464FF00009B1452BD194ED038A07EEFD
:103E9800906A05EB8603B0EE487AF8EEE77A9AEE78
:103EA8008B7AC7EE276ABB4240D104F1CC07F6EE05
:103EB800000AB0EE490A3846FFF7CAFE33462A46DA
:103EC80029463846FFF726FF84ED038A02B0BDEC89
:103ED800088BBDE8F0879FED2C9AAAE7DFED2A8AC8
:103EE800CDE7D4ED017A78EEA77AF4EEEB7AF1EE2D
:103EF80010FA0EDAC4ED017ADAED007A09F1010957
:103F080094ED027A37EE677AE7EE087AEAEC017AFE
:103F1800B9E777EEEB7AC4ED017AFEF7B9F8F6EE79
:103F2800007A30EE670A84ED020AE5E7B6EE007A19
:103F3800D4ED007AF4EEC77AF1EE10FA39FE8A7AF7
:103F480067EE877AC4ED007A97ED007AB8F1000F32
:103F580003D036EE888AF0EE487A67EE277AE7ECE7
:103F6800017AA0E70000A842A69B443B000010424B
:103F78000AD7233B3333333F9A99993E0000904246
:103F8800CDCC4C3BABAAAA3E00000000B2EE027AB0
:103F9800D1ED017A9FEDBD0A77EEC77A2DE9F04F92
:103FA800F4EEC07A04460E461746F1EE10FA2DEDEF
:103FB800088BADB03E9D199307D49FEDB50AF4EE7A
:103FC800C07AF1EE10FA30FE270AFCF75BFB336883
:103FD800DFEDB07AB7EE009A03F0020296ED03AA7D
:103FE80020EE278A9FEDAC0A1492C3F3400203F037
:103FF80001032AEE400AF0EE499A15920893D4F884
:104008004031D6ED05AA0993AB00D6ED02BA169356
:10401800099B96ED04BA03EB85031793FCF732FB73
:10402800DFED9E7A089BE0EE679A8BB179EE4A6ADB
:10403800B6EE007AF7EE087AE6EE877ADFED986A50
:104048009FED987AAAEEA67A67EE877AC4ED047A8D
:10405800DFF868E20DF1680C78EE086A4FF0060B9D
:10406800BEE80F00ACE80F009EE803001AAA20ABD8
:104078008CE80300B2EC017ADFED8B7A26EE877AC2
:10408800B4EEE77AF1EE10FA67FE877A9FED877A49
:10409800BBF1010B67EE877AFCEEE77AE3EC017A75
:1040A800E8D104F120030DF1980C04F1380E1893AF
:1040B8001868083353F8041C6246734503C29446D3
:1040C800F6D1269B209A0A93279B0F93219B0F9941
:1040D8000593289B1093229B0693299B1193239B5E
:1040E80007932A9B1293249B0C932B9B1393259B3A
:1040F8000D930A9B03EB020E059B03EB0109069B3C
:10410800109903EB0108079B119903EB010A294653
:104118000023DDE9120C0E970B9301390D9B9C448B
:104128000C9B18444B1C40F0D1800B9BE3B10A9BBD
:1041380002FB05320F9B2692059A02FB0533069A6D
:104148002793109B02FB0533079A2893119B02FBC8
:1041580005330C9A2993129B02FB05330D9A2A9377
:10416800139B02FB05332B930DF1980C189B6246A9
:10417800083303CA43F8041C2CA943F8080C9446D6
:104188008A42F4D19FED4A0A2BEE800AFCF77AFAAC
:10419800DFED487A20EE270AB5EEC00AF1EE10FAF4
:1041A80000F1B780DFED448AB4EEE80AF1EE10FAC8
:1041B80078FE808AF0EE080A04F13808B0EE680A42
:1041C8004046EBEEA00AFFF743FD2B463A46394638
:1041D8004046FFF777FD2BEE0BBAF3EE007A39EE87
:1041E8004B7AE7EE277A67EE887AF5EEC07AF1EE39
:1041F80010FA00F19180F6EE00BAF4EEEB7AF1EEE7
:1042080010FA7BFEA7BAB846B9465D4540F08780EC
:1042180094ED07BA07EE905A169BB0EE4B7AF8EE7B
:10422800E77A3B449AEE8A7A87EE275A434540F06C
:104238009B8004F14C08B0EE680AF6EE000A40468E
:10424800FFF706FD2B463A4639464046FFF762FD22
:10425800199B84ED07BAF0EE480A019304F1600057
:10426800179B02950093089A099B96ED042AD6EDB0
:10427800031A96ED021A96ED050A1599FFF772FDD5
:104288002DB0BDEC088BBDE8F08F00BF000000C367
:104298000000FE42519696390000A842A69B443B76
:1042A8003333333F9A99993EEE7CFF3E0000804FAE
:1042B80000009042CDCC4C3BABAAAA3EE80E0224AB
:1042C800C3F5A83E00000000CDCCCC3D4FEAD97321
:1042D800BFEE007A5FED066A03EBDE73964403EBEC
:1042E800D87303EBDA7303EBD07303EBDC7307EEDD
:1042F800903A0E9BF8EEE77AA7EEA67AA3EC017A3D
:104308000E93059B9944069B9844079B9A44012366
:1043180002E75FED148A4DE75FED16BA73E7D4ED57
:10432800057A7BEEA77AF4EEC97AF1EE10FA0EDA86
:10433800C4ED057AD9ED007A0BF1010B94ED067AFC
:1043480037EE677AEBEE077AE9EC017A5DE777EE0C
:10435800C97AC4ED057AFDF79BFEF6EE007A30EED9
:10436800670A84ED060AE5E7D4ED046A149A69EE53
:10437800A66AC4ED046AD8ED007A1AB135EE0BBA14
:10438800F0EE4B6AF5EEC07A5FED315AB1EE007A85
:10439800F1EE10FA37FE257A67EE877AB0EEE76A13
:1043A80036EE096A87EE867A77EE257A67EEA67A80
:1043B800E8EC017A3AE700BF70478B685F2B86BF4D
:1043C8000A68603B002210B484BF8B6002F160046D
:1043D8004FF0000388BF0C60C0F8403103685DF8F7
:1043E800044B5B68C0F83C211847103007F060BBED
:1043F8002DE9FF410A9F05460C461646B90002EB17
:10440800870090425DD119441A4691425ED195EDDC
:10441800501A05F11000D4ED047A9FED2E7A77EE4C
:10442800C17A226894ED050AC2F3400102F0010244
:10443800A7EE871A94ED017AF2EE027A37EE677AE0
:10444800DFED257A85ED501AB4EEE77AF1EE10FA31
:1044580007D4DFED227AB4EEE77AF1EE10FA77FEB0
:10446800877A9FED1F7ADFF880E077EE877ADFEDB5
:104478001D0A0096BDEEE77ACDE90137F8EEC76A66
:1044880017EE108AD5F83C3194ED032A77EEE67AD8
:10449800D4ED021AFEEECC7A17EE90CA0EEB8C0E13
:1044A800DFF848C00CEB880CDEED007A9CED007A52
:1044B80067EE877A67EEA00A07F006FB04B0BDE84E
:1044C800F0814FF0000C42F804CB9AE7002042F844
:1044D800040B9AE70AD7233C000000C30000FE4201
:1044E8000000004351969639F4690324F86D0324BB
:1044F8007047704770B5184B00250446303040F8B7
:10450800143C0E4640F8043C40F8205C40F81C5C23
:1045180040F8185C40F8105C40F80C5C40F8085C07
:10452800FDF7DAFB04F14400FDF7D6FB04F158006F
:10453800FDF7D2FBB368E5665F2B2567656786BF25
:104548003268603B0022A56782BF02F16001B36058
:104558003160E26770BD00BF6F12833AB5EEC00AE2
:104568009FED463A70B5F1EE10FA22D4F7EE007AD4
:10457800B4EEE70AF1EE10FA37FE800A90ED036A0E
:1045880007EE903A90ED027A30EE460AD0ED015AE5
:10459800F8EE677AC0EE272A11B14FF07E5101601C
:1045A800013B09D280ED027AC0ED015A80ED036A21
:1045B80070BDB0EE430AE1E7314CBFEE005A314E10
:1045C80036EE226A25683049DFED306A06FB0511B0
:1045D80007EE901A2160F8EE677A67EEA67AF0EE99
:1045E800006AA7EEA65AF5EE007AF1EE006A76EEBA
:1045F800677A67EEA67AF7EE006AF5EEC07AF1EE12
:1046080010FA35D4F4EEE67AF1EE10FA76FEA77ACF
:10461800D0ED004A76EE244AF4EEE64AF1EE10FABE
:1046280029DB74EEE64AB6EE004A75EE655AC4EE2A
:10463800863A23EE844A76EEE36A24EE234AA5EE10
:10464800847ABEEE004A26EE844A64EE266AB0EE0C
:10465800434AA5EEA64AF0EE455A35EE475AC0ED54
:10466800004AA5EE277AA2EC017A34EE257A97E77C
:10467800DFED027ACCE79FED014AEEE7000000008B
:10468800040000200D6619005FF36E3C0000802FC7
:10469800F0EE407A90ED017A90ED030AD0ED006AD1
:1046A800E7EE407A90ED047A90ED026AE0EE667AE1
:1046B80077EEC77A67EE867AA6EEA70AA6EE807A24
:1046C800B0EE406AA6EEA76AA6EE807A80ED036A8D
:1046D80080ED047A704700002DE9F0472DED0C8B32
:1046E80091ED018A0D4604461F46B0EE480A9146F0
:1046F800FEF7B4FB95ED047ADFED817AF0EE408A9F
:10470800B3EE080A149EA7EE278AF6EE00BA38EE32
:10471800400AFEF7A3FBD5F80080B0EE408ADFED33
:10472800797ABBEE080A18F0020F95ED027A08F0C4
:10473800010800FE270ADFED747A77EEC07AA7EE4B
:10474800270AFEF78BFBDFED717AB0EE409A95ED04
:10475800030A20EE270AFBF795FF3346F0EE409A4E
:104768003A46B0EE490A414604F11000FFF7F6FE5A
:1047780028EE099AD4F87CA03346414604F120007B
:1047880089EE280A5246FFF7E9FE94ED1B9A07EED8
:10479800906A94ED1CBA94ED1EAAF8EE677A78EE4A
:1047A800C98A38EE4B8AC8EEA7CAD4ED1D8AB0EE86
:1047B800687A88EE27DA99EEAB7A87EE27CA95ED04
:1047C800047A37EE4A7AC7EE279A5EB984ED1EAAB4
:1047D800C4ED1D8A84ED1CBA84ED1B9ABDEC0C8BCC
:1047E800BDE8F08778EE8C8A9FED497A39EE2C9AED
:1047F80004F14408B7EE008A04F1300078EEAB7A91
:1048080004F158053BEE0DBA013EF0EE680A67EE7A
:10481800877AB0EE490A67EE897AF1EEE77AC8EE50
:1048280027AAFFF715FA4046F0EE680AB0EE490AE3
:10483800FFF70EFAF0EE680AB0EE4B0A2846FFF7CB
:1048480007FAB0EE005A3AEE29AAB7EC010AB0EE20
:10485800486AFAEC017A94ED0F7A40467AEE6B5A80
:10486800D4ED106AAAEE456A2AEE800A6AEEA7AA73
:10487800DFED247AF0EEE55AB4EEE76AA5EEC58AD4
:1048880094ED0E5AF1EE10FA54BFF0EE465AF0EEDF
:10489800675A77FE864AF0EE407A94ED0D6AE7EEA5
:1048A800467A94ED0C6AE7EE467A77EEE67A67EE9A
:1048B800857AA6EE277AE6EE076A28EE078AB0EE32
:1048C800474AA4EEA78AA6EE274AB0EE665AA6EE95
:1048D800075AA5EEA68AA9EC018A84ED0F4A84ED51
:1048E800105AFFF7D5FEB0EE408A2846B0EE6A0AA5
:1048F800FFF7CEFE38EE008A07ED018A65E700BFB4
:104908000000404200000000000000430000F042A8
:10491800000020427047D0F8A43003F58041994246
:104928004FF0000202D1C0F8A020704723F8022BF4
:10493800F5E7000090ED0A5AF0B5013A02D280ED91
:104948000A5AF0BD0468F6EE003AD0ED027A631E0A
:1049580048BF04F5FF53446848BF1F3313F01F0FC7
:10496800036040F0458190ED037AD0ED046A77EE5C
:10497800233A80ED027AD7EE267A90ED077AD0EDC9
:10498800086AC0ED037AD0ED067A80ED067AD7EE94
:10499800267AC0ED077A03F17D05D1ED004A9FED37
:1049A800967AF6EE045AC5F30C05DFED947AC3F354
:1049B8000C0634F9155074EEA77A06EE905AF8EE04
:1049C800E66A66EE876AE6EEA57AB0EE676ABEEE3C
:1049D800CA6A16EE105ABEEE046A05F30F0524F8EB
:1049E800165003F59975E7EE866AC5F30C0534F998
:1049F800155007EE905A03F17F05F8EEE77AC5F3F4
:104A08000C0567EE877AE7EEA56AB0EE664AE6EE31
:104A1800867ABEEECA4A14EE106A06F30F0624F828
:104A2800156003F51075C5F30C0534F9155006EE3D
:104A3800905A03F59A75F8EEE66AC5F30C0566EE2A
:104A4800876AE6EEA57AB0EE674AE7EE866ADFED9A
:104A58006C7ABEEECA4A14EE106A9FED6A4A06F3F3
:104A68000F06E3EE847A24F81560BDEEE74A14EEEB
:104A7800105AB8EEC43A1D4477EEC37A05F24226BE
:104A880005F24325C5F30C05C6F30C0634F9155099
:104A980034F9166004EE105A03F2422503EE106A48
:104AA800B8EEC44AC5F30C05B8EEC33A24EE074A7B
:104AB800A3EE474A67EE847AE3EE077AE7EEA56A43
:104AC800B0EE664AE6EE867ADFED4F6ABEEECA4A77
:104AD80014EE106A9FED4D4A06F30F06A3EEA64AA0
:104AE80024F8156041F25026FDEEC46A16EE905A7D
:104AF800F8EEE63A1D4434EE634AAF1905F59255CF
:104B08001135C7F30C07C5F30C0534F9177034F9E0
:104B1800155003EE907A06EE905AF8EEE33A03F653
:104B28007325F8EEE66AC5F30C0566EE876A34F974
:104B38001550E3EEC76A24EE264AF6EE086AA3EE9D
:104B4800874AE0EE847A77EEC57AA7EEA65A07EE92
:104B5800905A03F2FF35F8EEE77AC5F30C0567EED5
:104B6800877AF0EE456AE7EE866AB0EE664AE6EEC8
:104B7800A57ABEEECA4A14EE107A07F30F0724F896
:104B8800157003F592550E35C5F30C0534F915501B
:104B980006EE905A03F675253344F8EEE66AC5F337
:104BA8000C05C3F30C0326EE877AE7EE257AA7EE09
:104BB800867AF0EE676AFEEECA6AF0EE477A16EE7B
:104BC800907AF0EE006A07F30F07FEEECA7A24F82F
:104BD800157017EE905AF0EE647A05F30F0524F875
:104BE8001350D7EE267AE7EE804AE1EC014AA4E6B4
:104BF80077EEA33ACFE600BF00008039000000003E
:104C08000000C84300002C420000AA4300E03F45D2
:104C18009FED0E7ADFED0E7A20EE077AE0EE077A46
:104C2800B7EE007AC7EE206A20EE270AF0EE477A40
:104C380080ED000AE6EE807AC0ED016AE0EE007AC7
:104C4800C7EE276AC0ED026A704700BFD7573941DF
:104C5800DB0F49402DE9F04F0D4691ED010A16464C
:104C6800984604462DED088B85B0F6EE009AFEF7BF
:104C7800F5F8D5ED027A9FED967AB0EE40AA67EE88
:104C8800A77A9FED940AB0EE69BADFED93AA169F52
:104C9800A7EE870AFEF7E2F895ED039A20EE000AE0
:104CA800DFED8E7AB4EEE99A39EE698A60EE278AEA
:104CB800F1EE10FAF7EE007AACBF9FED890A9FED8E
:104CC800890AC7EEA8BAA8BF28EE000AFBF7DAFCE3
:104CD800B4EEE99AD5ED047AA0EE00BA2B68BA00D2
:104CE800F1EE10FA06EB870167EEAAAA03F00103BA
:104CF80048BF38EE088A01936AEEA7AA58BF9FED0D
:104D0800798A334648BF28EE088A99424AD14244F4
:104D180043469A424AD104F1A40304F114050293CC
:104D2800FDF7B6F9019BBA46C146002BB3464FF0D2
:104D3800010100FE289ABAF1000F3BD11835029BF9
:104D48009D42EDD19FED680AF6EE000A04F1CC0011
:104D5800B4EEC0AAF1EE10FA30FE0A0AFFF758FFC7
:104D680094ED367A94ED376A3B463246013B80F043
:104D78008D80F5EE000A9FED5D0A3A46314628EE31
:104D8800000A04F1A000E8EE290A84ED367A84EDE1
:104D9800376A20EE080AFFF7CDFD05B0BDEC088B99
:104DA800BDE8F08F002043F8040BAEE7002143F87C
:104DB800041BAEE7F4EEC98AF1EE10FA63DB31B3F7
:104DC800FDF766F9B0EE007AFFEE007AE0EE077ABA
:104DD8002AEEA70AFBF756FC6AEE007AB5EE000A3F
:104DE8002846B1EEE87AF0EE4B0AF4EEC07AF1EE1E
:104DF80010FA30FE270A6BEE007A67EE877AF1EE3A
:104E0800E77A89EEA77A05ED017AFFF701FF2BEE25
:104E1800899A0021F9EC017A0AF1FF3A039177EEB9
:104E2800897A49ED017A95ED037AD5ED017A55ED48
:104E3800016A67EEC77A95ED006AD5ED025AE9EE88
:104E4800267AD5ED046AE7EE467A77EEE67A67EEDB
:104E5800A57AA6EE277AE6EE076AF0EE475AE6EE5E
:104E6800275AE6EE076AC5ED035AC5ED046AFBEC5E
:104E7800017A77EE877A4BED017AFDF709F9039904
:104E8800B0EE409A57E79FED179AC3E7D4ED346A1E
:104E9800D2ED007AD4ED355AE6EEC77AD4ED336A0E
:104EA800E7EE667A77EEC67A67EEA57AA6EEA77A77
:104EB800F0EE475AA6EEA77AF0EE467AE6EEA57A25
:104EC800B0EE676AE2EC017AA6EEA56A4EE700BF8B
:104ED800000090420000704200004042ABAA2A3E07
:104EE8000000F0420000000048E1FA3ECDCC4C3F03
:104EF8002DE9F04104460F4600F1140500F1A4081D
:104F080000262846DFED1D0A183545F81C6C9FED74
:104F18001C0AFFF77DFE45F8086C45F80C6CA8459F
:104F2800EED1BB6804F1CC00DFED140AB3F5804F75
:104F38009FED130A25BF3A68A3F580430022BB60A2
:104F480028BF02F580410F4B28BF3960C4F8B03044
:104F58000D4BC4F8A420C4F8B430C4F8A8304FF0FE
:104F68007C53C4F8C860C4F8AC30FFF751FEC4F8ED
:104F7800DC60C4F8D860BDE8F08100BF0000C8421A
:104F88000AD7233CF5FFFF3FF5FFFF3E7047704708
:104F98002DE9F04100230025044600F128070646C4
:104FA80000F13C08036145618561C56105624562A0
:104FB80038460C36FCF790FEC6F89450C6F8985060
:104FC8001437C6F89C50B045F2D104F18C00FCF7B8
:104FD80083FE0023104A04F58870C4F8F4300F4BA0
:104FE800C4F8DC50C4F8E050C4F8E450C4F8E85001
:104FF800C4F8EC50C4F8F050C4F8F820C4F8FC30F9
:10500800C4F80051C4F80421C4F80831C4F80C519C
:10501800FCF762FEBDE8F08122BA003D2033783FFC
:1050280060EE006ADFED0F7A9FED0F7AA6EEA77AA1
:10503800DFED0E7AE6EE877AB7EE007AC7EE206AE1
:1050480020EE270AF0EE477A80ED000AE6EE807A35
:10505800C0ED016AE0EE007AC7EE276AC0ED026A89
:10506800704700BF49265F428FBA2141DB0F494094
:105078002DE9F04F2DED0C8BF7EE00BA8DB0B0EEA8
:1050880040DA9FEDE40AF0EE429A044631EEEB7AFC
:105098000E46F0EE6B7A1546F0EE61CA1F46B0EE8A
:1050A80060CADFEDDD8AE7EE217AB0EE418AB0EE24
:1050B80000AAF0EE6BAA3AEE699A67EEA17A29EE99
:1050C800299A27EE800AFBF7DDFADFEDD47A60EE45
:1050D80027DA9FEDD30AF2EE047AA9EEA70A2CEE9E
:1050E800C00AFBF7CFFADFEDCF7AE0EE67AADFED73
:1050F800CE7A29EE279ADFEDCD7AE9EEA78ADFEDA1
:10510800CC9AF5EEC08AF1EE10FA00F18B80F4EE3D
:10511800EB8AF1EE10FA7BFEA88A5DB1B1EE0C7A4B
:105128003023F0EE087A84ED04AA2360EDEE077AC6
:10513800C4ED027A04F11809DFF820830DF1080B99
:105148000025CA46B8EC010A9FEDBABA20EE0C0A4F
:10515800B4EECB0AF1EE10FA3BFE000AABEC010A02
:10516800002D62D0F5EE007A6DEEA77AF0EE6B0AAC
:10517800013550460AF1140AE7EE800AFFF750FF9E
:10518800052DDFD19FEDAC7AF7EE087AB4EEC78A29
:10519800F1EE10FA4CD528EE278ACDED099AB1EE3A
:1051A800026ACDED0A9AF0EE676ACDED0B9A3BEEF6
:1051B800C87A27EE077AE7EE066A9FEDA07AA8EE8E
:1051C8000A7ACDED076A8DED087AB3EE007A2CEEF7
:1051D80007CAB5EEC0CAF1EE10FA4AD4B4EECBCA8B
:1051E800F1EE10FA3BFE0C0AF0EE6B0A04F17C08B3
:1051F8004046E0EE270AFFF713FFD4ED05DADDEDB0
:10520800227AB0EE6D7AF8EE677A9CEE8D7A87EEA8
:1052180027BA229B83BBC4ED05DA0DB0BDEC0C8B1D
:10522800BDE8F08FF0EE698A77E7F0EE6D7A9DE7DA
:1052380038EE471AB0EE087AF6EE006A21EE071A41
:10524800B0EE677A8DED091AA1EE667ADFED7C6A19
:105258008DED077A9FED7B7AA1EE667A21EE011A31
:105268008DED0A1A21EE011A8DED087A8DED0B1AD3
:10527800ABE79FED6F0AB7E72268002A6BD0013AC7
:1052880094ED02CA22600AB93CEE6BCA94ED038A17
:10529800F6EE087A7DEE8BDA07AD3CEE487AA24648
:1052A800484602AADFED62CA4FF0000BA7EE278A34
:1052B800DFED657A84ED01CA84ED038A3CEE488A05
:1052C800ACEE278AB5EC01DA002E4BD0F6EE007A68
:1052D80092ED007A5D4BB4EEE77AF1EE10FA67FED4
:1052E800877A9AED247A77EE877A9FED597AF4EEE9
:1052F800EB7AF1EE10FAA8BF77EEEB7ACAED247AD2
:1053080067EE877ABDEEE77A17EE10CAB8EEC77A6D
:1053180003EB8C0E77EEC77A9EED000A9EED017ABC
:1053280037EE407AA7EE870AF5EE007A2DEE800A6E
:1053380020EE270A0BF1010BEDEE00CA14300AF13A
:105348000C0ABBF1050F02F1040216D09FED418A49
:105358002CEE088AB6E794ED01CADFED3F7A2CEE11
:1053680027CA93E7B0EE480A01920090FFF790F938
:10537800A8EE090ADDE90002DCE7F8EE087ABFEEDC
:10538800008AF4EEE7CAF1EE10FA3DD4F0EE087A9E
:10539800F4EEE7CAF1EE10FA39DCF3EE0B7AF2EE2E
:1053A800026AB0EE677A6CEEA66AACEEAC7AECEE06
:1053B800A67A2CEE877A87EE27CAFCF769FED4ED29
:1053C800047A4046A0EE0A8A6AEEA77AC4ED047A07
:1053D800B5EEC08AF1EE10FA48BFB0EE698A002E29
:1053E80047FEAD7A68EEA77A77EEA77A27EE880AA5
:1053F800FFF74EF97BEEE87A229BA7EE8C0A013B79
:105408002293A7EC010A04E7B0EE48CAD5E7B7EE45
:1054180000CAD2E70000A842CDCC4CBD0000FA4437
:105428000000484289D2DE3ACDCCCC3DCDCC8C3F71
:1054380000000000EE7CFF3EB0AA2A3F9A99193E70
:105448003333333F9A990940A69BC43BE42F032486
:1054580000000044F4FDD43CAAAA4A3F8C1202245E
:1054680060EE006ADFED0B7A9FED0B7AA6EEA77A65
:10547800DFED0A7AE6EE877A20EE270AF7EE007A61
:1054880080ED000A30EE270A87EE807A80ED017AF7
:10549800704700BF49265F428FBA2141DB0F494060
:1054A800F8B52DED108BB7EE008A044661EE019A2F
:1054B8000F46B0EE40EA154631EEC87A1E46F0EEC9
:1054C800487A9FEDECDAB2EE080AF1EE0C8AE7EEC4
:1054D800217A9FEDE97A20EE690AF0EE48AAB0EE4B
:1054E80042AAF0EE61DAB0EE609A61EEE77AF0EE89
:1054F80048BAA7EE870AA2EE280AFBF7C3F8DFED41
:10550800DF7AE0EE67AA9FEDDE0A2DEEC00AAAEE6A
:10551800680ADFEDDC8AFBF7B5F8DFEDDB7AE0EE51
:1055280067BADFEDDA7AEAEE278AF5EEC08AF1EE9D
:1055380010FA6DD4F4EEC88AF1EE10FA78FE288AD3
:10554800DFEDD37AB6EE00CAB2EE040A04F1280001
:1055580069EE277A38EE68AA29EE000AF4EECC7ACA
:10556800B1EECAAAB1EEE8BAF1EE10FAB4EECC0A7E
:105578007CFE27CAF1EE10FA3CFE000AFFF770FF26
:10558800F0EE007AF0EE4C0A04F13400B0EE6C0A4A
:10559800E8EEA70AFFF744FDB0EE080A04F11C0084
:1055A80029EE000AFFF75CFFEDB19FEDBA7ADFED57
:1055B800BA7A84ED048AEEEE077A9FEDB87A84ED24
:1055C80001DA84ED00DAC4ED027AC4ED037ADFED86
:1055D800B47AEDEE877A9FEDB37A67EE877AFDEEBF
:1055E800E77AC4ED067AD4ED05CADDED167AB0EE99
:1055F8006C7A169BF8EE677A5D1E9DEE8E7AC7EE82
:1056080027DA6B1C07D1C4ED05CABDEC108BF8BDB9
:10561800F0EE4D8A94E7002F00F000817CEEADCAD1
:10562800DFED948AF0EE6C6AC4ED03CAC4ED02CAD9
:10563800F4EE007AC4ED048AB2EE007A77EEC97A05
:1056480067EE877AF5EEC07AF1EE10FA00F10E8176
:10565800F4EEC87AF1EE10FA78FE277A94ED006A33
:10566800B7EE005A94ED017AFFEE005AB4EECC6A18
:105678009FED8DEAF0EE484A67EEA77AF1EE10FA50
:10568800B4EECC7A69EEA77A35FE854AF1EE10FAC7
:10569800F4EECE7A75FE855AB1EE005AF1EE10FAA4
:1056A80068EE853AE3EEA94ADFED803A64EE894A6E
:1056B800A4EEA37A36EE246A84ED006A84ED017ABA
:1056C80040F3008174EE0D4A9FED794A67EE847AC3
:1056D80075EEA45AF0EE484AE7EEA54AB4EEE46A3D
:1056E800F1EE10FAB4EEE47AA4BF38EE466A84ED1F
:1056F800006AF1EE10FA03DB38EE477A84ED017A9E
:10570800D4ED005A6AEE266ADFED6A7A013DF4EEBE
:10571800CC5AD4ED09EAB0EE676A94ED08FAF1EED6
:1057280010FAB4EECC7A58BF78EE655AF1EE10FA5A
:10573800A5EE856A58BF38EE477AE7EE057A76EE29
:10574800065AB0EEC66A36EE086A37EEA77AF0EE69
:10575800E77AC5EE864ADFED585A9FED586A77EE2C
:10576800887AA4EEA56AC7EE275AB5EE007AF0EE5D
:10577800467AE5EE877A66EEA76AD4ED077AE6EE12
:10578800A7EAEEEECF6A67EEA67AEEEE8F7AC4ED60
:10579800097AFCF77DFCB0EE407AD4ED106AD4EDBE
:1057A8000E7A94ED0D6AA7EEE67AD4ED117AD4ED6F
:1057B8000F5AA6EEC67A37EE677A27EE257AE6EE16
:1057C800076AE6EE267AF0EE665AE6EE075AB0EE7B
:1057D800677AA6EE267AD4ED0C6A94ED0B6AC4EDCE
:1057E800105A84ED117A94ED0A7AE7EE276AE6EE0C
:1057F800C67A27EE277A77EE8E7AA6EE867A84ED39
:105808000C7A94ED037A78EE878A68EEA78A68EEB8
:105818008B8AEEEE8F8AE6EC018AF2E6D4ED026A14
:10582800DFED1E7AF4EEE76AF1EE10FA14DCF7EE1B
:10583800007A15F0010F4AFEA77A66EEA76AA369F7
:10584800C4ED026A5BB1013BA361D4ED048ADFEDCC
:105858001C7A68EEA78AEBE6F0EE6A7AEDE7D4EDFB
:10586800037A67EEAB7AC4ED037AEEE7DFED017AEF
:10587800F4E600BF0000000000009042610BB63A59
:1058880000007042CDCC4CBD8988083BCDCC8C3F04
:1058980000000C423333333F9A99993E8FC2F53C4E
:1058A8000AD7233D00803B47CDCCCC3DF628BC3FF2
:1058B800CDCCCC3C6666A6BF9A99193FCDCCCCBD61
:1058C800F43C7F3FB4EEC86AF1EE10FAB4EEC87A41
:1058D800A4BF36EE486A84ED006AF1EE10FAFFF6CE
:1058E8000FAF37EE487A09E7B2EE027AD1ED017AC6
:1058F8009FED280A77EEC77A2DE9F047F4EEC07AD3
:1059080006460C4690461F46F1EE10FA2DED028B26
:1059180082B0DDF830A007D49FED1F0AF4EEC07AFC
:10592800F1EE10FA30FE270AFAF7ACFEDFED1B7A2B
:105938002568434620EE278ACDF800A0C5F3400924
:1059480005F0010594ED042A06F11000F0EE480A6E
:10595800D4ED031A94ED021A2A4694ED050A494635
:10596800FFF786FBF0EE480ACDF800A03B4694ED21
:10597800042A2A46D4ED031A494694ED021A06F180
:10598800DC0094ED050AFFF78BFD02B0BDEC028B3D
:10599800BDE8F087000000C30000FE42519696392A
:1059A800704700F5BC7007F0FEBB00002DE9F0431E
:1059B8000E46F2EE027A0546904696ED017A1F46AB
:1059C80037EE677ADFED8A7A2DED048BB4EEE77A4D
:1059D80085B0DDE91091F1EE10FA07D4DFED857A94
:1059E800B4EEE77AF1EE10FA77FE877A9FED827AC5
:1059F800B0EE009A814A77EE877A96ED048AD6F857
:105A080000C0D6ED031ABDEEE77A96ED022AF8EE4D
:105A1800C76A17EE100A77EEE67AFEEECC7A17EE32
:105A2800903A02EB8302764B03EB8003D2ED008AB7
:105A3800D3ED007A68EEA78ADFED727A68EEA78A5E
:105A4800F1EE087A28EE278AB4EEC98AF1EE10FA48
:105A58007AD8F7EE002A00230B70B4EEE28AF1EE52
:105A680010FA3ED80CF1FF34B0EE421AF0EE610A9B
:105A78003B466142B0EE680A05F124006141CDE978
:105A88000089D5F8942107F075FE3168B0EE680AF0
:105A9800CDF8009008EB8909481E96ED021AD6ED5C
:105AA800030A4142D5E96523414105F1C00008F0E8
:105AB8008FF8F0EE087A4346B0EE677AA8EE497A96
:105AC80027EE087A27EE087AE7EE497A67EE877AB2
